:100000000C94BB090C94E3090C94E3090C94E309E8
:100010000C94E3090C94E3090C94E3090C94E309B0
:100020000C94E3090C94E3090C941E170C9490179C
:100030000C94E3090C94E3090C94E3090C94E30990
:100040000C94E3090C94E3090C94E3090C94E30980
:100050000C94E3090C94E3090C94E3090C94E00D6F
:100060000C94E3090C94E3090C94E3090C94E30960
:100070000C94E3090C94E3090C94E3090C94E30950
:100080000C94CE0C0C94E3090C94E3090C94E30952
:100090000C94E3090C94E3090C94E3090C94E30930
:1000A0000C94E3090C94E3090C94E3099515981555
:1000B00087158B158F15B915B915B9159C15A01590
:1000C000A415AA15AE15B915B41530005649494105
:1000D00000564941005641004956410049494941AD
:1000E0000049494200494200564949490056494998
:1000F0004200564942005642004956420049494989
:10010000420049494100494100D5F08D14A1C88100
:10011000CFD9F1AF200000000008003FFF023000FF
:100120000080003FFC03FFF03FFF0233F800800037
:100130000000001C0030830FFB187FFF0000000050
:100140001C003083073318008000000003FFE037F5
:10015000F30233183FFE000000000800308303F371
:10016000F83FFE007FFF0FFFF821C3023318008025
:100170000006200031802FFB033318FFFF8006208C
:1001800001FF80200303F318034000062001FE4016
:1001900027F30233F806C200062000386026330F2A
:1001A000FB180E4600042003FFF066330FFB183ED9
:1001B0007C000C20030C00663302231876380018EC
:1001C0002180CCC067F306361846D8003831878CBA
:1001D0007040030C1E18078F80F03F063C30C01F94
:1001E000080C380703804000001000400E0000207B
:1001F0000400001800000000000000006606333C08
:10020000128BE0894442094924128880894499026A
:10021000493C1E888C8F449904492412A88C895427
:10022000420849241250808928660F33BC1250803E
:10023000E928180000000000000000000000000095
:100240000400000000001FC00801FC0438118018E1
:10025000001FC1FFC1FC09A01181FFC010407F0138
:10026000040920224014000000410000192026301B
:1002700022007FF07F07FF19FC6C10730024000040
:1002800002400920224188C03FE10043FE092022AC
:100290004100003D413E43D409302240AC8026C19C
:1002A00022426C09D02241A0C07CC13E47CC09DC6F
:1002B00024412140053100C053084C2C403F0058D8
:1002C0000001000000000000020000000000000229
:1002D0000100000000000202000000000002030014
:1002E0000000000002040000000000020500000001
:1002F00000000206000000000002070000000000ED
:1003000002080000000000020801000000000208CE
:1003100002000000000208030000000002080400C0
:1003200000000002080500000000020806000000AE
:100330000002080700000000020808000000000298
:100340000808010000000208080200000002080975
:100350000200000002080A0200000002080B02006E
:10036000000002080D0100000002080D020000005C
:1003700002080E0200000002080F0200000002083E
:100380001002000000020812010000000208120220
:10039000000000020812030000000208120400001E
:1003A0000002081205000000020812060000000208
:1003B00008120700000002081208000000020812DC
:1003C00008010000020812080200000208120902D7
:1003D00000000208120A0200000208120C010000CC
:1003E0000208120D0100000208120D0200000208AE
:1003F000120F010000020812100100000208121280
:10040000000000020812120100000208121202008D
:100410000002081212030000020812120400000277
:10042000081212050000020812120600000208124B
:100430001207000002081212080000020812120837
:10044000010002081212080200020812120902003A
:10045000020812130902000208121508020002081D
:1004600012160802000208121708020002081218E9
:1004700008020002081219080200020812190902F3
:10048000000208121B0802000208121C08020002E7
:1004900008121D0802000208121E080200020812BB
:1004A0001F08020002081220080200020812200998
:1004B0000200020812200A0200020812200B0200A9
:1004C000020812200C0200020812200D020002088D
:1004D00012200E0200020812200F02000208122051
:1004E000110100020812201201000208122012025B
:1004F0000002081220120300020812201204000257
:10050000081220120500020812201206000208122A
:1005100020120700020812201208000208122012FE
:100520000801020812201208020208122012090211
:1005300002081220120A02020812201409020208FC
:1005400012201509020208122016090202081220C0
:1005500018080202081220190802020812201909BC
:1005600002020812201B0802020812201C080202C4
:100570000812201D0802020812201E08020208129A
:10058000201F080202081220200802020812202060
:10059000090202081220200A0202081220200B027F
:1005A000000000000000000000000000000000004B
:1005B000000000000000000000000000000000003B
:1005C000000000000000000000000000000000002B
:1005D000000000000000000000000000000000001B
:1005E000000000000000000000000000000000000B
:1005F00000000000000000000000000A0828034579
:10060000295A0C0A510C010E011000130014121685
:1006100063181F1A6217091E612006232D275F2702
:100620000A28082C602F57325E3400365E37553A60
:100630005D3A453F3741264548483F4A5C4E604F4A
:100640005A5350552F573E585B5B165C5B5F606298
:10065000000A0B0A1D0A400A4F0B180B300B570CEF
:10066000120C4C0C450D0D0D1D0D490D590E010EB2
:10067000090E2A0E320F040F140F490F59101910CA
:100680003110491059111F11321155120912261239
:100690003E13021316133313461406142C14481475
:1006A0005A145A15001614161E163C16461714171F
:1006B0000A175017461828181E18461846190A19FE
:1006C0001419461950195A1A141A321A501B0A1BB7
:1006D000001B461B3C1C0A1C001C321C281C5A1CFC
:1006E000501D1E1D281D281E4E649A715F565042D3
:1006F0004064BFA08F868268A264EAC5A491877F08
:10070000847F7E7C808B8C8C96A06F72FAD7B4A08D
:10071000948C87848689909DA69EA0AAC3850FE0AD
:10072000B8B6B7B6A3B4CCB4B2B1B1B0AFC2AD9F96
:10073000948D9286888B90A2ADAFAAAA9999999927
:10074000BCB4A09B9EA4AD8E8E8E8E8E8E8E8E8E11
:100750008E8E8E1000000000000013F00081FE0F4E
:10076000F81211F083B00FF87E103FC3FF0FF8337B
:10077000F037C3FE180C3311A082301FFC3E10EC82
:1007800082FE0FF877F06482920FF8521064829222
:100790000FF81210B0863C008013F190866E07F0BF
:1007A00013110385C31FFC7FE1FF04400BF04200DF
:1007B00006064C10305FC00802583420504010002C
:1007C000400CE05FC0100FFE1B185043FF80403A02
:1007D000005FC01000402BF84200100FFE08404A96
:1007E000C0100040084092601000400840A6007011
:1007F00000401FF87FC01001001C8000001003FCA7
:1008000038800001FF020809980000100D903F1881
:10081000FFC3FF80E018401A00FE00C0184012001D
:100820003303FC1D501201FF8F04394832001001C0
:10083000042B4863219301FC0A40C1E23001040803
:10084000C000000000000000000003FE0406080ACB
:1008500010123FE22022202220226022A0246029C0
:10086000A03A7FF5AAAA5554010205060708090A0D
:100870000E0F10111221222124343536555675766B
:1008800000000FF01FE827E443C2438203800240C8
:100890007E7E7FFE7C7E7C3E381C18180C3000006B
:1008A00000FE838183FE000000FEC3C1C3FE000082
:1008B00000FEE3E1E3FE000000FEF3F1F3FE0000C2
:1008C00000FEFBF9FBFE000000FEFFFFFFFE000044
:1008D00006010201FD00F900F600F200ED00E8005B
:1008E000E800E800E500E100DC00D800D500D10018
:1008F000CC00CA004820204865204C692042652071
:100900004220204320204E20204F20204620204EF1
:1009100065204E61204D6720416C20536920502096
:1009200020532020436C204172204B202043612023
:100930005363205469205620204372204D6E204678
:100940006520436F204E69204375205A6E20476111
:10095000204765204173205365204272204B72204E
:100960005262205372205920205A72204E62204D2C
:100970006F205463215275205268205064204167D3
:1009800020436420496E20536E205362205465201A
:100990004920205865204373204261204C61204348
:1009A00065205072204E6420506D20536D20457597
:1009B00020476420546220447920486F20457220EB
:1009C000546D205962204C75204866205461205790
:1009D00020205265204F73204972205074204175A9
:1009E00020486720546920506220426920506F21BE
:1009F000417421526E21467221526121416321547A
:100A000068215061215520214E7021507521416D82
:100A100021436D21426B21436621457321466D219F
:100A20004D64214E6F214C72215266214462215344
:100A300067214268214873214D7421447321526714
:100A400021436E214E6821466C214D65214C762153
:100A50005473214F672101000000000000000000D6
:100A6000000000000000000203040000000000007D
:100A70000000000005060708090A0B0C0000000032
:100A80000000000000000D0E0F10111213141516B7
:100A90001718191A1B1C1D1E1F202122232425266E
:100AA0002728292A2B2C2D2E2F303132333435365E
:100AB00037380048494A4B4C4D4E4F5051525354D1
:100AC000555657580068696A6B6C6D6E6F7071721D
:100AD0007374757600000000000000000000000044
:100AE00000000000000000393A3B3C3D3E3F4041E1
:100AF000424344454647000000595A5B5C5D5E5FD7
:100B00006061626364656667000003081F051F1F5C
:100B1000151B1F11111F110E1F15111F05011F118C
:100B20001D1F041F001F0010101F1F041B1F10108B
:100B30001F061F1F011F1F111F1F05071F311F1F2A
:100B4000051B17151D011F011F101F0F100F1F0C74
:100B50001F1B041B071C071915130C121E1F120C58
:100B60001E12120C121F0C1A14041F052E2A1E1F0F
:100B7000021C001D00201D001F041A011F001E047E
:100B80001E1E021E1E121E3E120C0C123E1E0206DD
:100B900014120A020F121E101E0E100E1E081E1A2C
:100BA000041A2E281E1A12161F111F001F001D15D1
:100BB0001711151F07041F17151D1F151D01011FF4
:100BC0001F151F17151F001700001000653232CACD
:100BD000653232CA656532323232653232CA656593
:100BE00065323265656532326532323232323232E6
:100BF0003232329797803232CA653232CA656532F4
:100C0000323232653232CA656565323265656532C7
:100C1000326532323232323232323232C0C0653232
:100C200032CA653232CA656532323232653232CA10
:100C3000656565323265656532326532323232322F
:100C40003232323232C0C065656565323265656503
:100C500032326532323232323232323232C0C088CF
:100C6000018801B801260106010601DC0026018881
:100C7000018801B8010B02B801880106010601DCF8
:100C8000002601880126010601F700DC00C4008867
:100C90000126014A01260106010601DC0026014A5F
:100CA000012601060126010601F700DC00C400C48C
:100CB0000088018801B801260106010601DC002632
:100CC0000188018801B8010B02B8018801060106FC
:100CD00001DC002601880126010601F700DC00C4C2
:100CE00000880126014A01260106010601DC0026D2
:100CF000014A012601060126010601F700DC00C4B5
:100D000000C40088018801B801260106010601DC43
:100D100000260188018801B8010B02B8018801068C
:100D2000010601DC002601880126010601F700DC2E
:100D300000C400880126014A01260106010601DCE3
:100D40000026014A012601060126010601F700DC02
:100D500000C400C4000000880126010601F700DC81
:100D600000C400880126014A01260106010601DCB3
:100D70000026014A01260106014B020B02F101B8CF
:100D80000188018801010204081020408000000051
:100D900000003E5B4F5B3E3E6B4F6B3E1C3E7C3E1D
:100DA0001C183C7E3C181C577D571C1C5E7F5E1C2B
:100DB00000183C1800FFE7C3E7FF0018241800FFE5
:100DC000E7DBE7FF30483A060E2629792926407FDF
:100DD000050507407F05253F5A3CE73C5A7F3E1CEE
:100DE0001C08081C1C3E7F14227F22145F5F005FDA
:100DF0005F06097F017F006689956A6060606060B8
:100E000094A2FFA29408047E040810207E201008FB
:100E1000082A1C08081C2A08081E101010100C1E96
:100E20000C1E0C30383E3830060E3E0E0600000018
:100E3000000000005F00000007000700147F147F1F
:100E400014242A7F2A12231308646236495620503C
:100E50000008070300001C2241000041221C002A58
:100E60001C7F1C2A08083E08080080703000080813
:100E7000080808000060600020100804023E514984
:100E8000453E00427F400072494949462141494D53
:100E9000331814127F1027454545393C4A494931DA
:100EA00041211109073649494936464949291E0059
:100EB0000014000000403400000008142241141403
:100EC000141414004122140802015909063E415D20
:100ED000594E7C1211127C7F494949363E414141AD
:100EE000227F4141413E7F494949417F090909012A
:100EF0003E414151737F0808087F00417F41002037
:100F000040413F017F081422417F404040407F0222
:100F10001C027F7F0408107F3E4141413E7F09094A
:100F200009063E4151215E7F091929462649494952
:100F30003203017F01033F4040403F1F2040201FFC
:100F40003F4038403F63140814630304780403618E
:100F500059494D43007F414141020408102000419E
:100F600041417F0402010204404040404000030729
:100F7000080020545478407F28444438384444447E
:100F800028384444287F385454541800087E0902F5
:100F900018A4A49C787F0804047800447D400020B5
:100FA00040403D007F1028440000417F40007C0409
:100FB0007804787C080404783844444438FC1824C5
:100FC000241818242418FC7C080404084854545499
:100FD0002404043F44243C4040207C1C2040201C2E
:100FE0003C4030403C44281028444C9090907C4435
:100FF00064544C4400083641000000770000004172
:1010000036080002010204023C2623263C1EA1A150
:1010100061123A4040207A38545455592155557937
:1010200041215454784121555478402054557940F9
:101030000C1E527212395555555939545454593958
:10104000555454580000457C410002457D42000142
:10105000457C40F0292429F0F0282528F07C5455BF
:1010600045002054547C547C0A097F49324949493F
:10107000323248484832324A4848303A4141217A6F
:101080003A42402078009DA0A07D39444444393D37
:101090004040403D3C24FF2424487E4943662B2F9A
:1010A000FC2F2BFF0929F620C0887E090320545409
:1010B00079410000447D413048484A32384040225E
:1010C0007A007A0A0A727D0D19317D2629292F2886
:1010D000262929292630484D4020380808080808C4
:1010E000080808382F10C8ACBA2F102834FA0000AE
:1010F0007B000008142A142222142A1408950022C6
:101100000095AA005500AAAA55AA55AA000000FFFA
:1011100000101010FF00141414FF001010FF00FF47
:101120001010F010F0141414FC001414F700FF0059
:1011300000FF00FF1414F404FC141417101F101007
:101140001F101F1414141F00101010F000000000D6
:101150001F101010101F10101010F010000000FFD2
:10116000101010101010101010FF10000000FF14CD
:101170000000FF00FF00001F10170000FC04F41423
:10118000141710171414F404F40000FF00F71414DB
:101190001414141414F700F7141414171410101F57
:1011A000101F141414F4141010F010F000001F108D
:1011B0001F0000001F14000000FC140000F010F0DD
:1011C0001010FF10FF141414FF141010101F000053
:1011D0000000F010FFFFFFFFFFF0F0F0F0F0FFFF66
:1011E000FF0000000000FFFF0F0F0F0F0F384444F7
:1011F00038447C2A2A3E147E02020606027E027EC3
:101200000263554941633844443C04407E201E201B
:1012100006027E020299A5E7A5991C2A492A1C4CC0
:101220007201724C304A4D4D303048784830BC62C3
:101230005A463D3E494949007E0101017E2A2A2A3B
:101240002A2A44445F444440514A444040444A515D
:10125000400000FF0103E080FF000008086B6B08FE
:101260003612362436060F090F0600001818000043
:10127000001010003040FF0101001F01011E001985
:101280001D1712003C3C3C3C000000000000000028
:101290000200090F0000030401000C000000000020
:1012A000000000000000000000000000030000003B
:1012B00000250028002B002E003100000000002433
:1012C0000027002A002D0030000404040404030455
:1012D00005020202020403020202020606060606D4
:1012E00006040402020204040408020110408040C3
:1012F000102040804080080204018040201002013C
:10130000108010204040200403090412010002EF65
:101310000201404123368000010102030141726451
:1013200075696E6F204C4C430041726475626F7931
:1013300000080B0002020201000904000001020281
:101340000000052400100105240101010424020607
:10135000052406000107058103100040090401006F
:10136000020A000000070502024000000705830290
:10137000400000005D2411241FBECFEFDAE0DEBF85
:10138000CDBF11E0A0E0B1E0ECE6FEE402C00590C4
:101390000D92A037B107D9F726E0A0E7B1E001C070
:1013A0001D92AF33B207E1F719E0CBEBD9E004C0EF
:1013B0002197FE010E942927CA3BD107C9F70E9445
:1013C000911A0C9434270C940000CF92DF92EF9284
:1013D000FF920F931F93CF93DF936C017A018B01E0
:1013E000C0E0D0E0CE15DF0589F0D8016D918D0108
:1013F000D601ED91FC910190F081E02DC601099597
:10140000892B11F47E0102C02196ECCFC701DF9138
:10141000CF911F910F91FF90EF90DF90CF900895A3
:101420003FB7F8948091AD019091AE01A091AF01CA
:10143000B091B00126B5A89B05C02F3F19F00196C9
:10144000A11DB11D3FBFBA2FA92F982F8827820F4A
:10145000911DA11DB11DBC01CD0142E0660F771F9A
:10146000881F991F4A95D1F708954F925F927F92F6
:101470008F929F92AF92BF92CF92DF92EF92FF92A4
:101480000F931F93CF93DF9300D000D0CDB7DEB77B
:1014900029011C2DA02EB12C9C012A0D3B1D1216DA
:1014A00013060CF0B3C1803891050CF0AFC1FB01FD
:1014B000EE0DF11D1E161F060CF0A8C1603471055B
:1014C0000CF0A4C14115510509F4A0C1E62FE77045
:1014D000FE2EFB0177FD3796A3E0F595E795AA95DB
:1014E000E1F7AE2F77FF04C0FF2011F0AFEFAE0F92
:1014F00097FF05C0EE27FF27E81BF90B02C0E0E0CD
:10150000F0E02038310524F020E8722E781A01C06E
:10151000702E7E1A6A2F0A2E000C770BAF3F1CF438
:10152000D62ED09401C0D12C21E03E2D377009F485
:1015300020E0E694E694E694E20E6E0D711D6930AB
:1015400071051CF028E0E22EEA1AED183D2D3A0F45
:10155000DC0120E83203A00DB11D1124AE0FBF1F26
:10156000D09EE00DF11D11244E0F5F1F81E090E031
:101570004C010F2C02C0880C991C0A94E2F713301E
:1015800009F403C1A0F4113009F4B5C0123009F018
:101590003DC18FEF889DB001899D700D112460952C
:1015A00070957C836B835C802E2D230F2BC01A3F9C
:1015B00031F01B3F09F02AC12E2D230F88C02E2D9C
:1015C000230F51C0FA01E00FF11FE491E89D600183
:1015D000E99DD00C1124DA82C98237FD07C0FC01D5
:1015E000E080EE2DE623CE2AFC01C082F11013C06C
:1015F0000F5F1F4F0196071528F33F5F4A0D5B1DD4
:10160000A058BF4F321709F401C1CD0186549E4F37
:1016100000E010E0F0CF37305CF7FC01E058FF4FFE
:10162000D080D520CA80DC28D082E2CFFA01E60F34
:10163000F71FE491E89D8001E99D100D11241A83A4
:10164000098337FD04C0FC011081012B0083F110D8
:1016500013C06F5F7F4F0196671540F33F5F4A0DE0
:101660005B1DA058BF4F321709F4D0C0CD0186547E
:101670009E4F60E070E0F0CF37305CF78C0100588F
:101680001F4FF801E080EA81EE2AF801E082E1CF05
:10169000FA01E00FF11FE491E89DC001E99D900D72
:1016A00011249A83898337FD05C08095FB019081C1
:1016B00089238083F11014C00F5F1F4F6F5F7F4F2E
:1016C000071530F33F5F4A0D5B1DA058BF4F32171F
:1016D00009F49CC0BD0166547E4F00E010E0F0CFDD
:1016E000373054F7FB01E058FF4F8A818095908195
:1016F00089238083E1CFC2018E0F9F1F2E2D230FE0
:10170000321709F483C0BD0166547E4F6B0100E0BF
:1017100010E0071590F5FC01E00FF11FE491E89D42
:10172000B001E99D700D1124609570957C836B83E9
:10173000FA01E00FF11FE491E89D2001E99D500CB2
:1017400011245A82498237FD05C0F6017081672352
:10175000462A4082FF2059F037304CF4F601E05819
:10176000FF4F70816C8167237A81672B60830F5FE5
:101770001F4FFFEFCF1ADF0ACCCF3F5F4A0D5B1D33
:101780008A0D9B1DA058BF4FBBCFC72CD12CE40F97
:10179000F51FA654BE4F60E870E06C197D09AC18C7
:1017A000BD088501000F111F572D2E2DCF93DF93FC
:1017B000ED01EF96EF962296A590C590FF2059F087
:1017C000A89C5001C89C600137302CF4E880D0946C
:1017D000ED20EB28E99233233AF0EC90C094EC2012
:1017E000EA28ED920C94F50B11965A9529F72A9553
:1017F00051F0572D33951124E00FF11DA60FB11DA7
:10180000C60FD11DD9CFDF91CF9111240F900F902A
:101810000F900F90DF91CF911F910F91FF90EF905C
:10182000DF90CF90BF90AF909F908F907F905F9010
:101830004F9008950895CF92DF92EF920F931F93E8
:10184000CF93DF93FC0126816A3031F48581848354
:101850006185260F268392C0962FEF01A48161E057
:10186000620F9A334CF49033ACF49132B1F09E3263
:1018700009F04DC01FE312C091340CF448C09B35F1
:101880003CF08FE9890F8A3108F041C019EB03C0A1
:101890001FEB01C014E0190F01C01EE32F81062EBB
:1018A000000C770B0A2E000CBB0B213009F038C05E
:1018B000EAE0FBE00491EBE0FBE0E490112369F146
:1018C000E02FF0E02E2D269526952695422F50E00C
:1018D00021E030E08E2D877011F420E030E0240FFD
:1018E000351FE29F6001E39FD00CF29FD00C1124C2
:1018F00096011203A001139F500D1124445F544F11
:101900009AEFC92E20E030E0CD010E94350A88858B
:101910008D5F9C81890F8C8331C04CE05BE0F0CF00
:10192000EAE0FBE00491EBE0FBE0E490112309F135
:10193000E02FF0E02E2D269526952695422F50E09B
:1019400021E030E08E2D877011F420E030E0240F8C
:10195000351FE29F6001E39FD00CF29FD00C112451
:1019600096011203A001139F500D1124445F544FA0
:1019700002C04CE05BE08BEFC82EC4CF81E090E06A
:10198000DF91CF911F910F91EF90DF90CF9008954D
:10199000089580E090E008950E942F271F920F92F3
:1019A0000FB60F9211242F933F938F939F93AF9372
:1019B000BF93EF93FF938091B4019091B501A091F3
:1019C000B601B091B701892B8A2B8B2B51F18091F5
:1019D000B301E091B101F091B20190818927808338
:1019E0008091B4019091B501A091B601B091B70179
:1019F000181619061A061B064CF58091B401909131
:101A0000B501A091B601B091B7010197A109B10943
:101A10008093B4019093B501A093B601B093B70140
:101A200015C0809171008D7F809371009091B301FA
:101A3000E091B101F091B2018081282F30E0892F2F
:101A400090E080959095822393238083FF91EF917E
:101A5000BF91AF919F918F913F912F910F900FBEAA
:101A60000F901F901895DC01ED91FC910190F08191
:101A7000E02D09946115710579F0FB0101900020BA
:101A8000E9F73197AF01461B570BDC01ED91FC9153
:101A90000280F381E02D099480E090E008954F9258
:101AA0005F926F927F92EF92FF920F931F93CF936B
:101AB000DF93CDB7DEB7A1970FB6F894DEBF0FBEA8
:101AC000CDBF7C01FA01CB0119A2223008F42AE033
:101AD0008E010F5D1F4F422E512C612C712CBF01C6
:101AE000A30192010E94CB24F901CA0101501109FE
:101AF0006A3014F4605D01C0695CD8016C93232BDB
:101B0000242B252B61F7B801C7010E943A0DA1963D
:101B10000FB6F894DEBF0FBECDBFDF91CF911F91FE
:101B20000F91FF90EF907F906F905F904F9008958E
:101B30000C943A0D8F929F92AF92BF92CF92DF9208
:101B4000EF92FF926B017C010E94100A4B015C0135
:101B5000C114D104E104F104F1F00E94100ADC0187
:101B6000CB0188199909AA09BB09883E9340A105B0
:101B7000B10570F321E0C21AD108E108F10888EE3E
:101B8000880E83E0981EA11CB11CC114D104E1048D
:101B9000F10419F7DDCFFF90EF90DF90CF90BF9069
:101BA000AF909F908F9008952FB7F8946091A901FE
:101BB0007091AA018091AB019091AC012FBF089563
:101BC0001F920F920FB60F9211242F933F938F9372
:101BD0009F93AF93BF938091A9019091AA01A09187
:101BE000AB01B091AC013091A80123E0230F2D3758
:101BF00020F40196A11DB11D05C026E8230F029611
:101C0000A11DB11D2093A8018093A9019093AA0161
:101C1000A093AB01B093AC018091AD019091AE0166
:101C2000A091AF01B091B0010196A11DB11D8093AB
:101C3000AD019093AE01A093AF01B093B001BF91FD
:101C4000AF919F918F913F912F910F900FBE0F9069
:101C50001F901895BC0180E090E00C949A0D8FB114
:101C60008095807F669B88601C9B846008956038A7
:101C70007105D0F440345105B8F4E5E8FDE080E1A9
:101C8000849FD001A0781124A60F4770E40FF11DA6
:101C90008491A654BE4F222319F06C91862B03C069
:101CA00080956C9186238C9308952F923F924F924A
:101CB0005F926F927F928F929F92AF92BF92CF92DC
:101CC000DF92EF92FF920F931F93CF93DF93CDB7E5
:101CD000DEB729970FB6F894DEBF0FBECDBFFC016B
:101CE0006A3069F425898189928938E0239F800DC3
:101CF000911D1124928B818B108A1786AAC06D309A
:101D000009F4A7C099878887F58834882388618873
:101D100072880785108900381105C4F0A885B98537
:101D200055962C915597422F50E01F968D919C917E
:101D30005097B6E02B9F800D911D1124E885F98501
:101D4000908B8787268921116EC083C0F0E46F16BF
:101D5000710424F7C80125E0F29E800D911D112425
:101D600018161906DCF68F2D90E09C838B83C30137
:101D7000A8E0FA9E800D911D11241816190674F61C
:101D8000B5E06B9FB0011124FB01E357F24FFA83DA
:101D9000E98330E08885998504969E838D83E98167
:101DA000FA81E490353009F4E12C430188E0482EB3
:101DB000E0FC02C0532C01C0522C51100BC0321059
:101DC00009C0E6944A948B819C81880E991E41102B
:101DD000EFCF1BC068018C2D801B8F1590F754012D
:101DE0008A2D88198F1568F4252DA501B6018D81DE
:101DF0009E813F830E94370E9FEFA91AB90A3F8147
:101E0000EFCFAFEFCA1ADA0AE6CF3F5FEB81FC8172
:101E10000E0F1F1F89819A8101969A83898336301C
:101E200009F0BDCF7BCF6AEF64039001659F300D51
:101E3000112420583F4F281739075CF4A885B9852D
:101E4000ED91FC9111970190F081E02D6AE0CD01B8
:101E5000099581E090E029960FB6F894DEBF0FBE99
:101E6000CDBFDF91CF911F910F91FF90EF90DF9049
:101E7000CF90BF90AF909F908F907F906F905F902A
:101E80004F903F902F9008958F929F92AF92BF9264
:101E9000CF92DF92EF92FF921F93CF93DF930E9436
:101EA0002F0E83FF11C00E942F0E82FF0DC0809164
:101EB0007001811148C08FEF8093700160ED77E071
:101EC00080E090E00E949A0D809170018F3F71F147
:101ED00081111AC08091A7018439B0F01092A70136
:101EE0000E94D40D0E94002620E030E040E251E440
:101EF0000E945F250E94D1256093A3017093A401E5
:101F00008093A5019093A601E091A701F0E0EE0F68
:101F1000FF1FCF01815A934FFC0125913491232B50
:101F2000C1F02091A201211114C081C0DF91CF9195
:101F30001F91FF90EF90DF90CF90BF90AF909F9058
:101F40008F900C944A158F3F09F0B8CF1092700112
:101F5000B5CF0E944A150E94D40DD091A701ED2F54
:101F6000F0E0E453F44FC4910E94002620E030E0FA
:101F700040E251E40E945F256B017C018091A30146
:101F80009091A401A091A501B091A601BC01CD0141
:101F90006C0F711D811D911D0E9400269B01AC01DB
:101FA000C701B6010E94B22687FD70C28091A201CE
:101FB00081110EC081E08093A2010E94D40D609334
:101FC0009E0170939F018093A0019093A1015EC236
:101FD0000E94D40DC0909E01D0909F01E090A0017E
:101FE000F090A1012FE0C20ED11CE11CF11C6C1578
:101FF0007D058E059F0508F449C21092A201DF5F9E
:10200000D093A7010E94D40D0E94002620E030E06A
:1020100040E251E40E945F250E94D1256093A30114
:102020007093A4018093A5019093A6012FC2FC0197
:10203000C591D49180910101893021F08F3F09F041
:102040008ACF04C0ECEAF2E114919BC089E080934E
:102050000101ECEAF2E114911F3F09F47CCF113049
:1020600009F449C0FCF411118CC014BC15BC84B532
:10207000826084BD85B5816085BDE2EDF2E1E491C9
:10208000F0E0EE0FFF1FE355FD4E85919491909384
:10209000910180939001E1EFF2E1E491E0938F01EF
:1020A00010E071C0133009F449C0143009F069C060
:1020B0001092C0001092C1008091C100886080938E
:1020C000C1008091C10081608093C100E2EDF2E126
:1020D000E491F0E0EE0FFF1FE355FD4E85919491E2
:1020E00090938B0180938A01E1EFF2E1E491E09318
:1020F000890114E048C01092800010928100809104
:10210000810088608093810080918100816080934C
:102110008100E2EDF2E1E491F0E0EE0FFF1FE35504
:10212000FD4E8591949190938E0180938D01E1EF06
:10213000F2E1E491E0938C0111E025C0109290004F
:10214000109291008091910088608093910080911D
:102150009100816080939100E2EDF2E1E491F0E082
:10216000EE0FFF1FE355FD4E859194919093B201C0
:102170008093B101E1EFF2E1E491E093B30113E068
:1021800002C017FDE8CE0E9439136E01E12CF12C3C
:10219000812F8D7F09F0AEC060E072E18AE790E0A8
:1021A000A70196010E94AC2449015A01DA01C90134
:1021B0000197A109B1098F3F9105A105B10509F06A
:1021C00008F441C060E472E48FE090E0A70196015A
:1021D0000E94AC24DA01C9010197A109B1091230AA
:1021E000D9F48F3F9105A105B10509F008F4B3CEEC
:1021F00060E970ED83E090E0A70196010E94AC24B5
:10220000DA01C9010197A109B1098F3F9105A10523
:10221000B10509F0F8F49FCE8F3F9105A105B105F6
:10222000A1F098F068E478EE81E090E0A7019601D3
:102230000E94AC24DA01C9010197A109B109112357
:1022400009F4EFC00DC121E001C022E0112309F41F
:102250004CC08DC068E478EE81E090E0A701960163
:102260000E94AC24DA01C9010197A109B1098F3F8D
:102270009105A105B10509F008F46DCE64E274EF93
:1022800080E090E0A70196010E94AC24DA01C90128
:102290000197A109B1098F3F9105A105B10509F089
:1022A00008F459CE62E17AE780E090E0A701960158
:1022B0000E94AC24DA01C9010197A109B1098F3F3D
:1022C0009105A105B10509F008F4C8C0D501C40104
:1022D0003AE0B595A795979587953A95D1F70197E7
:1022E000A109B109111143C025E035B5387F232B71
:1022F00025BD48C060E072E18AE790E0A701960141
:102300000E94AC24DA01C9010197A109B109009723
:1023100021E0A207B10578F068E478EE81E090E072
:10232000A70196010E94AC24DA01C9010197A10915
:10233000B10923E001C021E0113039F4309181006E
:10234000387F232B209381002FC0133039F4309134
:102350009100387F232B209391003BC0143039F437
:102360003091C100387F232B2093C10047C011302A
:10237000D9F01CF4112331F0EECD133051F11430AB
:10238000E9F1E9CD87BD8FEF9FEFDC0180939A01E2
:1023900090939B01A0939C01B0939D0180916E004E
:1023A000826080936E00D7CD9093890080938800DF
:1023B0008FEF9FEFDC018093960190939701A0939C
:1023C0009801B093990180916F00826080936F00B3
:1023D000C2CD90939900809398008FEF9FEFDC011E
:1023E0008093B4019093B501A093B601B093B70167
:1023F00080917100826080937100ADCD8093CF0099
:102400008FEF9FEFDC018093920190939301A09353
:102410009401B09395018091720080648093720062
:102420009ACD8F3F9105A105B105B1F0A8F062E109
:102430007AE780E090E0A70196010E94AC24DA01DF
:10244000C9010197A109B1098F3F9105A105B10506
:1024500009F078F424E049CF23E047CF26E0F6CE18
:102460008F3F9105A105B10511F008F01BCF24E0C5
:10247000EDCED501C4012AE0B595A795979587952E
:102480002A95D1F70197A109B1092ECFDF91CF91FC
:102490001F91FF90EF90DF90CF90BF90AF909F90F3
:1024A0008F9008959C01240F311D1216130674F5A8
:1024B000803891055CF5FC0197FF02C0E0E0F0E098
:1024C0002138310514F020E830E02E1BAB014770B5
:1024D000552781E001C0880F4A95EAF777FF02C0CF
:1024E000695F7F4F93E0759567959A95E1F77695CB
:1024F000762F662777956795E60FF71FE654FE4F10
:10250000215020F09081982B9193FACF0895EAEB17
:10251000F1E080E0A0E0B8E000800EBC8111012C69
:102520001197A0FDFDCF0192B9F70DB408952F9238
:102530003F924F925F926F927F928F929F92AF9253
:10254000BF92CF92DF92EF92FF920F931F93CF93A0
:10255000DF9300D000D0CDB7DEB7E22EF12C9C0186
:102560002E0D3F1D37FD61C0803891050CF05DC018
:1025700010E09B01200F311F37FD57C060347105FB
:102580000CF053C03A012B011C01C70107969C01B6
:1025900093E0359527959A95E1F73A832983A12C05
:1025A000B12CC12CD12CC016D1060CF03EC01C821F
:1025B0001B824601840C951CEB81FC81EE15FF0506
:1025C00064F5EB81FC8183E0F595E7958A95E1F769
:1025D000EA0DFB1DE60DF71DE491F0E08B819C8177
:1025E0008770992720E830E002C0359527958A95B5
:1025F000E2F7E223F323EF2B51F021E0A4016B81FA
:102600007C81620D731D88EC95E00E94370E8B81F2
:102610009C8101969C838B83CFCFFFEFCF1ADF0A7B
:1026200029813A81A20EB31EBECF0F900F900F905A
:102630000F90DF91CF911F910F91FF90EF90DF905E
:10264000CF90BF90AF909F908F907F906F905F9052
:102650004F903F902F90089580E0EAEBF1E08111D8
:102660008FEF002481938193819381930394D1F719
:102670000895E1EFF2E12491E2EDF2E18491882303
:1026800099F090E0880F991FFC01E554FD4EA5914B
:10269000B491FC01E355FD4E859194918FB7F89468
:1026A000EC91E22BEC938FBF0895CF92DF92EF92E3
:1026B000FF920F931F93CF93DF936B01770FEE0879
:1026C000FF08F7FE1BC0EC016DE20E94330D8C0188
:1026D00044275527BA014C195D096E097F092AE084
:1026E000CE010E944F0D800F911FDF91CF911F915E
:1026F0000F91FF90EF90DF90CF9008952AE0B701FF
:10270000A601DF91CF911F910F91FF90EF90DF9085
:10271000CF900C944F0D5F926F927F928F929F9209
:10272000AF92BF92CF92DF92EF92FF920F931F93DF
:10273000CF93DF93EC018B017A01A901461B570B64
:1027400057FF03C0519541955109C7018C1B9D0B43
:1027500097FF03C09195819591095524539484174F
:10276000950714F0512C0AC09E2D8F2D7901292F29
:10277000382F9C2F8D2FE801092F182FEC16FD06FE
:1027800054F4902F812F8901292F382F9C2F8D2FC2
:10279000E701E92EF82E37016C1A7D0A5901A01ABB
:1027A000B10AB7FE03C0B194A194B108630177FEEA
:1027B00003C08FEFC81AD80AD594C794021713071D
:1027C00014F08FEF01C081E0882E880F9908EC1675
:1027D000FD06B4F021E0552019F0AE01B80102C0A9
:1027E000A801BE0188EC95E00E94370ECA18DB08EC
:1027F000D7FE04C0080D191DC60CD71C2196E7CFC3
:10280000DF91CF911F910F91FF90EF90DF90CF90CC
:10281000BF90AF909F908F907F906F905F90089542
:10282000DF92EF92FF920F931F93CF93DF937C0180
:10283000D22E8B01040F111DEB0177FF0EC0C0E0FB
:10284000D0E00BC0C417D5077CF42D2DAE01B70125
:1028500088EC95E00E94370E2196A80101341105FD
:102860008CF340E450E0EECFDF91CF911F910F91B8
:10287000FF90EF90DF900895EF92FF920F931F93D8
:10288000CF93DF93EC018B01E42EF22E60347105BF
:1028900010F40E945212B8016F0D711D6150710940
:1028A0006034710520F44E2DCE010E94521221E0B9
:1028B0004F2DB801CE010E941014CE018E0D911D36
:1028C00021E04F2DB8010197DF91CF911F910F911A
:1028D000FF90EF900C9410144F925F926F927F9242
:1028E0008F929F92AF92BF92CF92DF92EF92FF9220
:1028F0006B017C01B42E9B01AC010E94242788232C
:1029000019F063E671E027C026013701E89477F8F3
:102910002FEF3FEF4FE75FE7C301B2010E9424278B
:1029200081110DC02FEF3FEF4FE75FE7C301B20109
:102930000E945A2518161CF467E671E00CC02FEFB0
:102940003FEF4FE75FE4C701B6010E94B2261816B9
:1029500094F46BE671E084EC95E0FF90EF90DF90EB
:10296000CF90BF90AF909F908F907F906F905F902F
:102970004F900C943A0D2FEF3FEF4FE75FECC701FC
:10298000B6010E945A2587FDE4CF20E030E0A9017E
:10299000C701B6010E945A2587FF0BC06DE284EC87
:1029A00095E00E94330D4C01F7FAF094F7F8F0949B
:1029B00002C0812C912CA12C60E070E080E09FE3AC
:1029C000AB1440F420E030E040E251E40E945F2587
:1029D000A394F6CF9B01AC01C701B6010E94EE247F
:1029E0002B013C010E94D1256B017C010E94002635
:1029F0009B01AC01C301B2010E94ED242B013C01FB
:102A00002AE0B701A60184EC95E00E944F0D7C01FD
:102A1000E80CF91CBB2039F06EE284EC95E00E94D2
:102A2000330DE80EF91EDB2CDD2031F120E030E023
:102A300040E251E4C301B2010E94B7262B013C01E0
:102A40000E94D1254B01A12CB12C2AE0B501A40193
:102A500084EC95E00E944F0DE80EF91EC501B4010B
:102A60000E9400269B01AC01C301B2010E94ED242B
:102A70002B013C01DA94D8CFC701FF90EF90DF9093
:102A8000CF90BF90AF909F908F907F906F905F900E
:102A90004F90089580910101893009F5ECEAF2E147
:102AA000E4918FEF80930101E13071F050F0E33059
:102AB00089F0E430A1F4809172008F7B80937200E2
:102AC0000EC010926E000BC080916F008D7F8093BE
:102AD0006F0005C0809171008D7F80937100E6E9E1
:102AE000F2E14491E1EFF2E19491E2EDF2E18491BF
:102AF000882309F44DC04423E1F150E0FA013197F5
:102B0000EF30F105B0F5EA5AFF4F0C9429272091D8
:102B100080002F7707C0209180002F7D03C0209177
:102B20008000277F2093800024C024B52F7702C027
:102B300024B52F7D24BD1DC0209190002F7707C0A4
:102B4000209190002F7D03C020919000277F20933B
:102B500090000FC02091C0002F7703C02091C000CB
:102B60002F7D2093C00005C02091C200277F2093B5
:102B7000C200E82FF0E0EE0FFF1FE355FD4EA591D8
:102B8000B4918FB7F894EC9190959E239C938FBF4E
:102B90000895FC018091B901811103C08FEF9FEF6F
:102BA00008959FB7F89482E08093E9002091F200A5
:102BB00030E01216130614F421E030E0211531053F
:102BC00059F0289884E68093B8018091F1008083C1
:102BD0008091F200882319F09FBFC90108958BE608
:102BE0008093E800F9CF2FB7F89483E08093E90051
:102BF0009091E800892F807295FF04C09091F200B7
:102C000080E4891B2FBF08958091DF0581110DC0DD
:102C100082E08093DB0584E08093DC051092DE0582
:102C20001092DD0581E08093DF058BED95E008953E
:102C3000CF93DF931F92CDB7DEB76983DC01ED91AF
:102C4000FC910280F381E02D41E050E0BE016F5F16
:102C50007F4F09950F90DF91CF91089583E0809386
:102C6000E9008091F200882319F08AE38093E8005C
:102C70000895FC018485958597FD0BC09FB7F89456
:102C800082E08093E9008091F2009FBF90E001967E
:102C900008959FB7F89482E08093E9008091F20054
:102CA0009FBF90E008958F929F92AF92BF92CF9274
:102CB000DF92EF92FF920F931F93CF93DF935C010C
:102CC0006B017A0180910D01882309F45BC080912A
:102CD000B901882309F456C080913D0680FF05C0E4
:102CE0008091E00082608093E000E70110E00AEF4D
:102CF00083E0882E9AE3992E2097D9F10E94F3154C
:102D000081110AC0015009F43DC061E070E080E02B
:102D100090E00E949A0DF0CF282F30E0C217D30721
:102D20000CF48C2F4FB7F8948092E9009091E80052
:102D300095FF1DC0282F30E0C21BD30BF601982F42
:102D4000915020F081918093F100FACFC20ED31EF2
:102D5000112319F09092E80009C08091E80085FDE8
:102D600006C09092E80011E0209709F010E04FBFF4
:102D7000C3CF1111C3CF5D9884E680933E061E1425
:102D80001F0444F081E090E0F5019383828380E0AA
:102D900090E001C0C701DF91CF911F910F91FF908B
:102DA000EF90DF90CF90BF90AF909F908F9008955D
:102DB0000E94F31590E00895CF93DF931F92CDB753
:102DC000DEB7FC018485958597FD05C02FEF3FEFA9
:102DD000358724870BC0CE0101960E94C915019743
:102DE00019F4898190E002C08FEF9FEF0F90DF917F
:102DF000CF9108950F931F93CF93DF931F92CDB779
:102E0000DEB78C01FC018485958597FF0EC0CE014D
:102E100001960E94C915019719F4298130E002C07A
:102E20002FEF3FEFF80135872487F80184859585DA
:102E30000F90DF91CF911F910F9108951F920F92E4
:102E40000FB60F9211248F939F938091E100909180
:102E5000E100937F9093E10083FF0FC01092E9009F
:102E600091E09093EB001092EC0092E39093ED00D0
:102E70001092B90198E09093F00082FF20C093E097
:102E80009093E9009091F200992319F09AE39093BE
:102E9000E80090913E06992339F090913E069150BA
:102EA00090933E06992389F19091B801992339F0C6
:102EB0009091B80191509093B801992341F184FF0A
:102EC00010C08091E2008E7E81608093E20080914C
:102ED000E1008F7E8093E10080913D068E7E8061CF
:102EE00011C080FF16C08091E2008E7E80618093C9
:102EF000E2008091E1008E7E8093E10080913D06AA
:102F00008E7E816080933D0604C05D9ACDCF289A65
:102F1000D6CF9F918F910F900FBE0F901F90189555
:102F20001F920F920FB60F921124CF92DF92EF9261
:102F3000FF920F931F932F933F934F935F936F9342
:102F40007F938F939F93AF93BF93EF93FF93CF9311
:102F5000DF93CDB7DEB76C97DEBFCDBF1092E9002F
:102F60008091E80083FFEDC168E0CE0145960E94A4
:102F7000841A82EF8093E8008D8987FF05C09091C5
:102F8000E80090FFFCCF03C09EEF9093E800982FDD
:102F9000907609F0C6C09E892F89188D91110CC0BA
:102FA000803829F480913C068093F10002C0109291
:102FB000F1001092F10048C1422F50E0512B9130A6
:102FC00051F4811141C14130510509F03DC1809159
:102FD0003C068D7F0BC0933061F4811135C14130C7
:102FE000510509F031C180913C06826080933C0616
:102FF0002BC1953041F48091E80080FFFCCF206820
:103000002093E30021C1963009F05FC0EB8CFC8C6B
:103010001092E90010923A0610923906123091F59A
:1030200010923806109237060E94521A99E0BE019B
:103030006F5F7F4FDB01E92F1D92EA95E9F79983D6
:103040001A8391E09E8390EA98879AEF998720915E
:10305000390630913A06275F3F4F3C832B838D839F
:103060001092E90010923A0610923906F092380652
:10307000E092370649E050E080E00E942B1A0E945F
:10308000521AE2C0F0923806E09237060E94041607
:10309000DC011296ED90FC901397E114F10409F411
:1030A000C0C0D701ED91FC910480F581E02DBE01F7
:1030B0006B5E7F4FC7010995009719F00CF0C4C0F3
:1030C000C7C0F701E084F184E8CF973009F4C0C0AD
:1030D000983021F481E08093F100B6C0993009F076
:1030E000B3C0837009F0B4C0E1E4F1E081E021E015
:1030F00036E39081992361F08093E9002093EB00FF
:1031000091919093EC003093ED008F5F873089F7B9
:103110008EE78093EA001092EA008F898093B901CC
:1031200093C08B8D9C8D1092E90010923A061092FC
:1031300039069093380680933706898D811156C0E1
:103140008E899D89913A59F4813209F081C047E016
:1031500050E066E071E080E00E942B1A75C0913269
:1031600009F076C0833289F4888D90E0982F882703
:103170002F89822BA0E0B0E080930201909303019D
:10318000A0930401B09305015FC0803269F480917F
:10319000E80082FFFCCF67E086E091E00E94841A9D
:1031A0008BEF8093E80006C0823209F04DC08F8912
:1031B00080930D0180913B06882319F0EEEFFAE031
:1031C00002C0E0E0F8E08091060190910701A09133
:1031D0000801B0910901803B9440A105B10509F0B7
:1031E0007BC080910D0180FF93C076C00E940416C1
:1031F000DC0112960D911C9113970115110541F1F7
:10320000D801ED91FC910190F081E02DBE016B5E43
:103210007F4FC8010995811117C0F80100851185FC
:10322000ECCF113009F44EC0133091F48F8988230C
:1032300009F445C0823081F440E867E089E293E117
:103240000E94EE19882321F08EEF8093E80079C068
:1032500081E28093EB0075C0813029F440E86BE097
:103260008DE193E1EDCF833099F70E940416DC01E4
:103270001296ED90FC9013978E010F5F1F4F68011F
:10328000E114F10479F0D701ED91FC910680F7810A
:10329000E02DB801C7010995080F111DF701E08461
:1032A000F184EECFD8011C92F60101900020E9F7DD
:1032B0003197BF016C197D0940E0C601C1CF67E0BD
:1032C00073E102C06BE073E16115710509F2FB0166
:1032D000449150E080E840CF0FB6F894A8958091D3
:1032E0006000886180936000109260000FBEA89516
:1032F000EE3F2AE0F20739F08091FE0A9091FF0A32
:1033000091838083A1CF1092FF0A1092FE0A9CCF76
:10331000EE3F8AE0F80731F0808191819093FF0AB7
:103320008093FE0A87E797E7918380839BE088E19B
:103330000FB6F894A895809360000FBE909360003C
:1033400083CF6C960FB6F894DEBF0FBECDBFDF9172
:10335000CF91FF91EF91BF91AF919F918F917F910D
:103360006F915F914F913F912F911F910F91FF901E
:10337000EF90DF90CF900F900FBE0F901F90189599
:103380004091390650913A0620913706309138061F
:1033900042175307B4F49091E8009570E1F39091CF
:1033A000E80092FD19C08093F10080913906909158
:1033B0003A0601968F739927892B19F48EEF809323
:1033C000E8008091390690913A06019690933A066A
:1033D0008093390681E0089580E00895CF92DF92CE
:1033E000EF92FF920F931F93CF93DF931F92CDB76E
:1033F000DEB7182F062FE42E862F880F8E5F998355
:103400000E94C01983E00E94C019F12EC12E99813B
:10341000D92E8C2D8F19801798F4F601E7FE02C083
:10342000849101C080810E94C019182F80E00E9401
:10343000C0198123FFEFCF1ADF0A8111EACF01C043
:1034400081E00F90DF91CF911F910F91FF90EF904E
:10345000DF90CF900895DF92EF92FF920F931F932A
:10346000CF93DF93D82E8A017B01E40EF51EEB018A
:10347000CE15DF0571F0D7FE03C0FE01849101C0B7
:1034800088810E94C01921968111F2CF8FEF9FEFA2
:1034900001C0C801DF91CF911F910F91FF90EF9074
:1034A000DF9008950F931F93CF93DF931F92CDB7B3
:1034B000DEB782E0898342E450E061E373E180E8B3
:1034C0000E942B1A0E940416DC0112960D911C9189
:1034D00013970115110569F0D801ED91FC91028057
:1034E000F381E02DBE016F5F7F4FC801099597FF03
:1034F00007C089810F90DF91CF911F910F9108959F
:10350000F80100851185E5CF615030F02091F10080
:10351000FC0120830196F8CF289884E68093B801B7
:103520000895CF93DF9300D000D000D0CDB7DEB7A1
:10353000789484B5826084BD84B5816084BD85B58E
:10354000826085BD85B5816085BD80916E0081609A
:1035500080936E0010928100809181008260809340
:103560008100809181008160809381008091800042
:1035700081608093800080919100826080939100AF
:103580008091910081608093910080919000816092
:10359000809390008091C10084608093C1008091ED
:1035A000C10082608093C1008091C10081608093DE
:1035B000C1008091C30081608093C3008091C000EE
:1035C00082608093C0008091C20081608093C200BD
:1035D00080917A00846080937A0080917A00826082
:1035E00080937A0080917A00816080937A00809144
:1035F0007A00806880937A001092B90110923C069C
:1036000010923D068091D70081608093D70080EAB8
:103610008093D80089B5806189BD89B5826089BDF4
:1036200009B400FEFDCF61E070E080E090E00E9410
:103630009A0D8091D8008F7C80618093D800809112
:10364000E000807F8093E0008091E1008E7E809397
:10365000E1008DE08093E200559A209AEEEFFFE7BB
:10366000859194918B3F9C4D19F481E080933B06AA
:1036700081EC80937C0085B1806F85B984B1877EB1
:1036800084B984B1876E84B95E9A5F988AB1806D7F
:103690008AB9769A6E9881B3806F81BB899880B31E
:1036A0008D7080BB80E58CBD81E08DBD85E090E0B4
:1036B0000E942A0E5F9A85E090E00E942A0E5E9892
:1036C0005C98E9E0F1E08DE08E0F94919EBD0000E2
:1036D0000DB407FEFDCF31968E13F7CF5C9A81E8CB
:1036E00080936400809165008160809365000E94F2
:1036F00039138FEF809370015FE3E52EF12C0E9468
:103700002C131092D6051092D5051092D405109264
:10371000D30508E028E443EF51E0B7018AE190E0E7
:103720000E9497123EE2E316F10451F401E128E60B
:1037300046E151E069E070E08FE090E00E9497126E
:103740000E94871261E0E61AF1087DE2E716F104B3
:10375000B1F668EE73E080E090E00E949A0D0E945E
:10376000440F0E94D40D00917501109176012091B3
:103770007701309178010C591F4F2F4F3F4F601741
:1037800071078207930708F468C50E94D40D6093FF
:1037900075017093760180937701909378010E9470
:1037A0002F0E87FF0AC080918001882331F081505D
:1037B0008093800181E0809300010E942F0E84FF9E
:1037C0000AC080918001893030F48F5F809380013E
:1037D00081E0809300010E942F0E85FF0AC0809136
:1037E0008301882331F081508093830181E08093AD
:1037F00000010E942F0E86FF0AC080918301813153
:1038000030F48F5F8093830181E0809300010E94F8
:103810002F0E282F287083FF20C580918001909162
:10382000830132E1839FF0011124E90FF11DEA5A6F
:10383000F54FE491EE2309F4EFC481E08093000199
:1038400061E069830E942F0E82FDE2C40E94440F52
:103850000E94D40D0091750110917601209177019D
:10386000309178010C591F4F2F4F3F4F6017710750
:103870008207930710F10E94D40D60937501709335
:10388000760180937701909378010E942F0E85FF37
:1038900008C07981713029F07150798381E080937B
:1038A00000010E942F0E86FF08C08981833028F412
:1038B0008F5F898381E080930001109100011123C3
:1038C00009F21092740110927301109200010E948B
:1038D0002C131092D6051092D5051092D405109293
:1038E000D3059981913009F0B8C182E08093D90560
:1038F0008CE390E09093D4058093D305809183016D
:10390000E091800102E10E9FF0011124E80FF11D0A
:10391000EA5AF54FE491F0E03197BF01660F771F47
:10392000E60FF71FEC50F74F649184EC95E00E948E
:10393000330D8AE490E09093D4058093D3051092E0
:10394000D6051092D50580918301E09180010E9FEC
:10395000F0011124E80FF11DEA5AF54FE49123E03C
:10396000E29FF0011124EE50F74F649184EC95E052
:103970000E94330D8CE590E09093D4058093D3059D
:103980001092D6051092D505809183019091800107
:10399000099F90011124280F311DB9016A5A754FF2
:1039A0007B01FB01949123E0929FF0011124ED50E3
:1039B000F74FE491E13251F400E120E140E858E0B2
:1039C00063E170E080E790E00E94971288E698E05B
:1039D000FC012491F7013491231301C010E00196FA
:1039E000F8E080389F07A1F710937201112351F07E
:1039F00000E120E148E458E064E270E080E790E014
:103A00000E949712F701449150E060E070E02AE0D4
:103A100084EC95E00E944F0D81E08093D9050BE086
:103A200028E344EF57E061E070E082E090E00E941C
:103A3000971228E347EA57E065E170E082E090E002
:103A40000E9497120CE028E343E557E068E270E03B
:103A500081E090E00E9497128DE390E09093D4056E
:103A60008093D30586E190E09093D6058093D505A9
:103A700080918301E091800122E1E29FF001112415
:103A8000E80FF11DEA5AF54F84918C36B0F4E491B9
:103A9000F0E0E951F94FE4916E2F70E080E090E0A2
:103AA0000E94002620E030E048EC52E40E945F25AE
:103AB00042E050E00E946C1406C067E471E084ECC0
:103AC00095E00E94980D8DE390E09093D40580934B
:103AD000D3058CE290E09093D6058093D505209194
:103AE00083018091800132E1839FC0011124820F04
:103AF000911D8A5A954FFC012491253008F033C05E
:103B00002491E22FF0E0EE0FFF1FE750FA4F64918F
:103B1000FC018491E82FF0E0EE0FFF1FE650FA4F12
:103B2000149170E080E090E00E94022620E030E0F6
:103B300040E251E40E945F256B017C01612F70E03F
:103B400080E090E00E94022620E030E04AE754E462
:103B50000E945F259B01AC01C701B6010E94EE24C3
:103B600043E050E063C0FC0124912C3268F52491BD
:103B7000E22FF0E0EE0FFF1FE750FA4F6491FC01D7
:103B80008491E82FF0E0EE0FFF1FE650FA4F1491FA
:103B900070E080E090E00E9402266B017C01612FC2
:103BA00070E080E090E00E94022620E030E048ECE7
:103BB00052E40E945F259B01AC01C701B6010E943F
:103BC000EE2442E050E032C0FC012491E22FF0E00C
:103BD000EE0FFF1FE750FA4F6491FC018491E82F2C
:103BE000F0E0EE0FFF1FE650FA4F14912AE0629FBB
:103BF000F0011124BF01FF0F880B990B0E940226D0
:103C00006B017C01612F70E080E090E00E94022651
:103C100020E030E040E251E40E945F259B01AC01CE
:103C2000C701B6010E94EE2441E050E00E946C14EE
:103C300023E230E040E850E063E270E080E090E0B2
:103C40000E948B1321E130E040E850E061E170E038
:103C500080E090E00E948B13D8C23981323009F0A5
:103C6000EDC1E0918001E83018F4E093710109C0E2
:103C7000E83011F485E003C0E93019F486E0809360
:103C800071018091830162E1E69FF0011124E80F48
:103C9000F11DEA5AF54FE491EE3219F483E0809376
:103CA000710121E041E26EE070E08BE090E00E9463
:103CB0001014EE24E394F12C00E010E060E1262ED5
:103CC000312C70EE872E99249A94E1EFCE2EDD24CC
:103CD000DA940F5F1F4F92E0E90EF11CCE0CDF1C4F
:103CE000422C440C439421E0442D3EE1A32EB12C00
:103CF000A218B308B501C8010B960E9410144EE13A
:103D0000642E712C601A710A21E04E2DB301C1019D
:103D10000B960E94101421E0442DB5018BE090E039
:103D2000801B910B0E94101421E04E2DB3018BE0FB
:103D300090E0821993090E941014021513055CF497
:103D4000D7FCC7CF71E0271A310882E0880E911C9A
:103D5000C80CD91CBECF3BE188248394912C809160
:103D6000710190E00196881599050CF4C8C0E32F05
:103D7000F0E0FE83ED8366246394712C6E1A7F0A53
:103D8000CF019195819591092C01440C551CAF01EF
:103D9000425E5F4F21E06BE070E088EC95E03C8391
:103DA0000E94370E4EE150E06D817E81461B570B1D
:103DB00021E06BE070E088EC95E00E94370E6D81A9
:103DC0007E81655F7F4F21E04EE150E088EC95E019
:103DD0000E94370E6BE070E08D819E81681B790B2D
:103DE00021E04EE150E088EC95E00E94370E00E0C3
:103DF00010E022242394312C3C818D819E81081770
:103E000019070CF077C077FC0AC0ED81FE8131976D
:103E1000FE83ED83F2E04F0E511C640C751C0F5FA6
:103E20001F4F22E0220E311C620C731C58016BE004
:103E3000A60EB11C21E0ED80FE807EE1E70EF11CB4
:103E4000A701B50188EC95E03C830E94370E7BE02A
:103E5000C72ED12CC01AD10A21E0A701B60188ECE7
:103E600095E00E94370E21E0EEE1EE2EF12C8D81DF
:103E70009E81E81AF90AA701B50188EC95E00E9435
:103E8000370E21E0A701B60188EC95E00E94370EBD
:103E900078019EE1E90EF11C21E0A701CD80DE80D2
:103EA000EBE0CE0ED11CB60188EC95E00E94370EF7
:103EB00021E0A701FBE0EF2EF12C6D817E81E61A57
:103EC000F70AB70188EC95E00E94370EAEE1AA2E02
:103ED000B12CA01AB10A21E0A501B60188EC95E049
:103EE0000E94370E21E0A501B70188EC95E00E9401
:103EF000370E82CF9FEF891A990A315F30CF109227
:103F0000D70511E01093D8051092D4051092D3056F
:103F1000EBE1F0E0F093D605E093D5056DE471E0B8
:103F200084EC95E00E94980D88E090E09093D40591
:103F30008093D3052BE130E03093D6052093D5054F
:103F400080918301E091800132E1E39FF00111242F
:103F5000E80FF11DEA5AF54FE4914E2F50E060E072
:103F600070E02AE084EC95E00E944F0D1093D70595
:103F70001092D8050DE110E020E04DE06AE170E01C
:103F8000C8010E9410140F5F1F4F0C371105A1F7D5
:103F900037E2C32EA12CB12C4CE1F42E52E1E52ED8
:103FA00067E0D62E8091710190E08A159B050CF494
:103FB0002CC1C092BF05C092BE05F092C005809191
:103FC0008301E0918001EE9EF0011124E80FF11DC4
:103FD000EA5AF54F84918936B8F4849190E00197BC
:103FE000D89EF001D99EF00D1124EA0DFB1DEF5370
:103FF000FD4FE4914E2F50E060E070E02AE08AEB44
:1040000095E00E944F0D14C00FEB12E0F80164918F
:10401000662371F0E091BA05F091BB050190F08143
:10402000E02D8AEB95E009950F5F1F4F892B71F703
:10403000FFEFAF1ABF0A2EE0C20EB4CF3981333082
:1040400009F0E3C082E08093D9050CE028E54BE35A
:1040500052E061E070E086E190E00E94971221E07A
:1040600040E860E170E080E090E00E943C1420E8CD
:1040700041E060E170E080E490E00E943C1480E167
:1040800090E09093D4058093D30562E170E0709343
:10409000D6056093D5056FE471E084EC95E00E944D
:1040A000980D85E590E09093D4058093D305E2E1E7
:1040B000F0E0F093D605E093D50563E571E084EC7C
:1040C00095E00E94980D2BE130E03093D4052093C9
:1040D000D30568E270E07093D6056093D5058091B2
:1040E0008301E091800112E11E9FF0011124E80F8D
:1040F000F11DEA5AF54F24918091710130E0215071
:10410000310907E0029FF001039FF00D1124E80F31
:10411000F11DEF53FD4FE4914E2F50E060E070E051
:104120002AE084EC95E00E944F0D8FE590E090939B
:10413000D4058093D305E8E2F0E0F093D605E09350
:10414000D50580917201882319F067E571E056C0AA
:104150002091830180918001189FC0011124820F5A
:10416000911D8A5A954FFC0124914091710150E0B4
:1041700030E021503109029FF001039FF00D11241E
:10418000E40FF51FEF53FD4FE491E430F0F2FC0132
:10419000649170E061507109069F9001079F300D96
:1041A0001124FA01E20FF31FEF53FD4FE491E830C1
:1041B00009F4CBCFFC01849190E00197089FF001B6
:1041C000099FF00D1124E40FF51FEF53FD4FE4910B
:1041D00068E070E06E1B710984EC95E00E94551355
:1041E00080E590E09093D4058093D30528E230E0F9
:1041F0003093D6052093D50561E671E084EC95E017
:104200000E94980D81E08093D9050E9487121ACBF5
:1042100081E08093000121C0923049F4853039F467
:1042200081E080938301209380018093000180913D
:104230008301823061F480918001863041F481E015
:104240008093830199E0909380018093000168EC52
:1042500070E080E090E00E949A0D80910001882338
:1042600009F4DDC20E942C131092D6051092D505D8
:104270001092D4051092D3058091830190E00397AA
:1042800090938201809381018091800190E0019759
:1042900090937F0180937E010FE010E083E1282E50
:1042A000312CEE24E394F12C22E1622E26E0200F43
:1042B0002A8328013DE0430E511C61E0600F6B83AF
:1042C00079E0700F79838FE090E09E838D8341E1E8
:1042D000742ECC24C394D12CF4E0CF16D104C1F4B5
:1042E00022E0E216F104A1F4BFE3AB2EB12C21E0F1
:1042F00041E16FE170E0C5010E9410143FEFA31A85
:10430000B30A60E5A616B10491F71092C10503C087
:1043100071E07093C105209181013091820137FDD8
:1043200004C180917E0190917F01223131050CF012
:10433000FCC08A30910508F0F8C0689E5001699E63
:10434000B00C1124A9014A0D5B1DFA01EA5AF54F80
:104350005F014491442309F494C0F4E0CF16D104E2
:1043600021F422E0E216F10439F021E141E1B80143
:104370008D819E810E943C147092BF057092BE0593
:104380003B813093C005F501449150E060E070E05E
:104390002AE08AEB95E00E944F0D7092BF05709263
:1043A000BE05F981F093C00580917E0190917F0157
:1043B000689EF001699EF00D112480918101909119
:1043C0008201E80FF91FEA5AF54FE491F0E03197C6
:1043D000BF01660F771FE60FF71FEC50F74F649190
:1043E0008AEB95E00E94330D8D81895F8093BF0534
:1043F0008093BE0529812093C00580917E01909114
:104400007F01689EF001699EF00D11248091810169
:1044100090918201E80FF91FEA5AF54FE49133E0D9
:10442000E39FF0011124EE50F74F64918AEB95E081
:104430000E94330D8D81845F8093BF058093BE05FC
:1044400069816093C00580917E0190917F01689E93
:10445000F001699EF00D11248091810190918201FB
:10446000E80FF91FEA5AF54FE49173E0E79FF00176
:104470001124ED50F74F64918AEB95E00E94330DC3
:1044800054C022303105D9F585309105C9F484E056
:10449000C816D10421F492E0E916F10439F021E1C3
:1044A00041E1B8018D819E810E943C147092BF054C
:1044B0007092BE05EA81E093C00569E571E01AC01B
:1044C0000697E9F4F4E0CF16D10421F422E0E216D5
:1044D000F10439F021E141E1B8018D819E810E9412
:1044E0003C147092BF057092BE053A813093C005AE
:1044F0006DE571E08AEB95E00E94980D16C092017F
:10450000AD80BE806DE0A60EB11CA501B1018D800D
:104510009E8084E0880E911CC4010E948B1392013E
:10452000A401B101C5010E948B138091810190917A
:104530008201019690938201809381019FEFC91AB5
:10454000D90AE0E17E0E2D813E81205F3F4F3E8300
:104550002D8331E87312C0CE60917E0170917F018E
:104560006730710580F483E090E09093D4058093E8
:10457000D3053092D6052092D5056F5F7F4F84EC2E
:1045800095E00E9455138091830190E003979093EA
:1045900082018093810180917E0190917F0101963B
:1045A00090937F0180937E019FEFE91AF90AE0E181
:1045B0002E0E311C005F1F4FF4E0EF16F10409F0DE
:1045C00075CE80918001883018F000E010E051C075
:1045D00014E1C12CD12C08E080918301B601680F51
:1045E000711DCB01039782319105C8F562507109A5
:1045F0003CEFF32EF10E1093BF051093BE0580FD26
:104600000DC00093C0058AEB95E00E945513F0920F
:10461000BF05F092BE051092C0050CC01092C005F7
:104620008AEB95E00E945513F092BF05F092BE050B
:104630000093C00580918301F601E80FF11DEE0F94
:10464000FF1FE653F74F659174918AE791E00E944E
:104650009D246AE771E08AEB95E00E94980D9FEF38
:10466000C91AD90A105FE7E0CE16D10409F0B4CF19
:10467000ACCF20E04EE060E070E0C8010E94101472
:104680000F5F1F4F0E301105A1F78EE480937C0061
:1046900062E070E080E090E00E949A0D80917A00E4
:1046A000806480937A0080917A0086FDFCCF8091AF
:1046B00078002091790030E0322F2227A901330FB2
:1046C000660B770B9A01AB01282B60E070E381E168
:1046D00090E00E94AC24CA01B90128EE33E040E02A
:1046E00050E00E94AC24CA01B9010E9402266B016D
:1046F0007C0120E030E040E950E40E94B22687FDD2
:104700000AC008E028E048EC58E061E070E081E091
:1047100090E00E94971220E030E040E950E4C701A9
:10472000B6010E945A2587FF14C020E030E040E81F
:1047300050E4C701B6010E94B22687FD0AC008E016
:1047400028E040EC58E061E070E081E090E00E94F9
:10475000971220E030E040E850E4C701B6010E9423
:104760005A2587FF14C020E030E040E650E4C7013E
:10477000B6010E94B22687FD0AC008E028E048EB97
:1047800058E061E070E081E090E00E94971220E044
:1047900030E040E650E4C701B6010E945A2587FF89
:1047A00014C020E030E040E450E4C701B6010E94AC
:1047B000B22687FD0AC008E028E040EB58E061E03F
:1047C00070E081E090E00E94971220E030E040E449
:1047D00050E4C701B6010E945A2587FF1CC0809192
:1047E000790108E028E0813061F048EA58E061E0B2
:1047F00070E081E090E00E94971281E0809379015F
:104800000AC040EA58E061E070E081E090E00E9478
:10481000971210927901109200010E94871280E095
:1048200090E0892B11F40C94AF1B0E9400000C94B3
:10483000AF1B0F931F93CF93DF938C0181E090E028
:104840000E94A42480FF31C08AE090E00E94A4244A
:104850009FEF980F9E3F48F522E330E0D801509635
:104860003C932E931F9728E330E052963C932E936F
:104870005197CBE0D0E0D801ED91FC910190F0810F
:10488000E02D682FC8010995CE010E94A42421962D
:10489000C131D10581F70E94871288EE93E0DF9144
:1048A000CF911F910F910C942A0EDF91CF911F9100
:1048B0000F91089504970C941924E7EEF5E0138204
:1048C000128288EE93E0A0E0B0E084839583A68313
:1048D000B78382E191E0918380838FEF9FEF95878B
:1048E0008487E4ECF5E0138212821186128680E15F
:1048F000838710861782158680E391E091838083F9
:104900008EE391E095838483108A1786128A118A38
:1049100081E0838B148A858B168AEAEBF5E013829B
:10492000128224E231E03183208398E091878087EE
:1049300015821682148287830895FB01DC0105909D
:104940000D920020E1F70895F999FECF92BD81BD47
:10495000F89A992780B50895052E97FB1EF40094C8
:104960000E94C32457FD07D00E94CB2407FC03D02C
:104970004EF40C94C32450954095309521953F4FAB
:104980004F4F5F4F089590958095709561957F4F3B
:104990008F4F9F4F0895A1E21A2EAA1BBB1BFD014A
:1049A0000DC0AA1FBB1FEE1FFF1FA217B307E4070E
:1049B000F50720F0A21BB30BE40BF50B661F771F66
:1049C000881F991F1A9469F7609570958095909546
:1049D0009B01AC01BD01CF0108955058BB27AA2708
:1049E0000E9405250C9478260E946A2638F00E94C1
:1049F000712620F039F49F3F19F426F40C946726B1
:104A00000EF4E095E7FB0C946126E92F0E948926BD
:104A100058F3BA17620773078407950720F079F4F3
:104A2000A6F50C94AB260EF4E0950B2EBA2FA02D14
:104A30000B01B90190010C01CA01A0011124FF274B
:104A4000591B99F0593F50F4503E68F11A16F04046
:104A5000A22F232F342F4427585FF3CF4695379545
:104A60002795A795F0405395C9F77EF41F16BA0B0A
:104A7000620B730B840BBAF09150A1F0FF0FBB1FB8
:104A8000661F771F881FC2F70EC0BA0F621F731F01
:104A9000841F48F4879577956795B795F7959E3F5E
:104AA00008F0B0CF9395880F08F09927EE0F9795EF
:104AB000879508950E943D2608F481E008950E949C
:104AC00073250C9478260E94712658F00E946A265D
:104AD00040F029F45F3F29F00C94612651110C94A9
:104AE000AC260C9467260E94892668F39923B1F3BB
:104AF000552391F3951B550BBB27AA276217730704
:104B0000840738F09F5F5F4F220F331F441FAA1F97
:104B1000A9F335D00E2E3AF0E0E832D09150504053
:104B2000E695001CCAF72BD0FE2F29D0660F771F01
:104B3000881FBB1F261737074807AB07B0E809F0E7
:104B4000BB0B802DBF01FF2793585F4F3AF09E3F6C
:104B5000510578F00C9461260C94AC265F3FE4F389
:104B6000983ED4F3869577956795B795F7959F5FAF
:104B7000C9F7880F911D9695879597F90895E1E0FB
:104B8000660F771F881FBB1F621773078407BA075A
:104B900020F0621B730B840BBA0BEE1F88F7E095B5
:104BA00008950E94912688F09F5798F0B92F992771
:104BB000B751B0F0E1F0660F771F881F991F1AF008
:104BC000BA95C9F714C0B13091F00E94AB26B1E09C
:104BD00008950C94AB26672F782F8827B85F39F09B
:104BE000B93FCCF3869577956795B395D9F73EF4A1
:104BF00090958095709561957F4F8F4F9F4F089549
:104C0000E89409C097FB3EF4909580957095619566
:104C10007F4F8F4F9F4F9923A9F0F92F96E9BB271C
:104C20009395F695879577956795B795F111F8CF98
:104C3000FAF4BB0F11F460FF1BC06F5F7F4F8F4F03
:104C40009F4F16C0882311F096E911C0772321F0F9
:104C50009EE8872F762F05C0662371F096E8862F91
:104C600070E060E02AF09A95660F771F881FDAF7E8
:104C7000880F9695879597F90895990F0008550F15
:104C8000AA0BE0E8FEEF16161706E807F907C0F0D2
:104C900012161306E407F50798F0621B730B840BDA
:104CA000950B39F40A2661F0232B242B252B21F4B4
:104CB00008950A2609F4A140A6958FEF811D811D54
:104CC000089597F99F6780E870E060E008959FEF8E
:104CD00080EC089500240A94161617061806090693
:104CE000089500240A941216130614060506089562
:104CF000092E0394000C11F4882352F0BB0F40F4EA
:104D0000BF2B11F460FF04C06F5F7F4F8F4F9F4F29
:104D1000089557FD9058440F551F59F05F3F71F0AB
:104D20004795880F97FB991F61F09F3F79F0879512
:104D30000895121613061406551FF2CF4695F1DF9B
:104D400008C0161617061806991FF1CF869571052B
:104D5000610508940895E894BB2766277727CB015F
:104D600097F908950E943D2608F48FEF08950E9458
:104D7000CA260C9478260E946A2638F00E94712672
:104D800020F0952311F00C9461260C9467261124D1
:104D90000C94AC260E94892670F3959FC1F3950F61
:104DA00050E0551F629FF001729FBB27F00DB11DAF
:104DB000639FAA27F00DB11DAA1F649F6627B00D3F
:104DC000A11D661F829F2227B00DA11D621F739F28
:104DD000B00DA11D621F839FA00D611D221F749F36
:104DE0003327A00D611D231F849F600D211D822F7D
:104DF000762F6A2F11249F5750409AF0F1F08823A4
:104E00004AF0EE0FFF1FBB1F661F771F881F9150D0
:104E10005040A9F79E3F510580F00C9461260C94F8
:104E2000AC265F3FE4F3983ED4F38695779567957B
:104E3000B795F795E7959F5FC1F7FE2B880F911DFA
:104E40009695879597F908950E943D26880B990BB2
:104E50000895EE0FFF1F0590F491E02D099481E075
:0C4E600090E0F8940C943427F894FFCFF5
:104E6C0001FFFFFFFFFF00E1000000000000000059
:104E7C00000018165316D8162E163916DC16FA160C
:104E8C00000000001B0CE509C90CC80C0000000058
:104E9C00550EE509C90CC80C1924FCFF00005A2456
:104EAC0000C180810000003F2E3F3F3F002B004D92
:104EBC006178004D696E0030004C615800416358B8
:104ECC00002D006E616E00696E66006F76660000E4
:00000001FF
