:100000000C9448090C9470090C9470090C947009B4
:100010000C9470090C9470090C9470090C94CA0C1F
:100020000C9470090C9470090C9470090C9470096C
:100030000C9470090C9470090C9470090C9470095C
:100040000C94D30D0C9470090C9470090C947009E5
:100050000C9470090C9470090C9470090C9470093C
:100060000C9470090C9470093000564949410056AF
:10007000494100564100495641004949494100491A
:1000800049420049420056494949005649494200FF
:1000900056494200564200495642004949494200E9
:1000A00049494100494100AED5F0A83FD300408DF9
:1000B00014A1C8DA1281CFD9F1DB40A4A6AF200089
:1000C00021007F22000700000008003FFF023000EF
:1000D0000080003FFC03FFF03FFF0233F800800088
:1000E0000000001C0030830FFB187FFF00000000A1
:1000F0001C003083073318008000000003FFE03746
:10010000F30233183FFE000000000800308303F3C1
:10011000F83FFE007FFF0FFFF821C3023318008075
:100120000006200031802FFB033318FFFF800620DC
:1001300001FF80200303F318034000062001FE4066
:1001400027F30233F806C200062000386026330F7A
:10015000FB180E4600042003FFF066330FFB183E29
:100160007C000C20030C006633022318763800183C
:100170002180CCC067F306361846D8003831878C0A
:100180007040030C1E18078F80F03F063C30C01FE4
:10019000080C380703804000001000400E000020CB
:1001A0000400001800000000000000006606333C58
:1001B000128BE089444209492412888089449902BB
:1001C000493C1E888C8F449904492412A88C895478
:1001D000420849241250808928660F33BC1250808F
:1001E000E9281800000000000000000000000000E6
:1001F0000400000000001FC00801FC043811801832
:10020000001FC1FFC1FC09A01181FFC010407F0188
:10021000040920224014000000410000192026306B
:1002200022007FF07F07FF19FC6C10730024000090
:1002300002400920224188C03FE10043FE092022FC
:100240004100003D413E43D409302240AC8026C1EC
:1002500022426C09D02241A0C07CC13E47CC09DCBF
:1002600024412140053100C053084C2C403F005828
:100270000001000000000000020000000000000279
:100280000100000000000202000000000002030064
:100290000000000002040000000000020500000051
:1002A000000002060000000000020700000000003D
:1002B000020800000000000208010000000002081F
:1002C0000200000000020803000000000208040011
:1002D00000000002080500000000020806000000FF
:1002E00000020807000000000208080000000002E9
:1002F00008080100000002080802000000020809C6
:100300000200000002080A0200000002080B0200BE
:10031000000002080D0100000002080D02000000AC
:1003200002080E0200000002080F0200000002088E
:100330001002000000020812010000000208120270
:10034000000000020812030000000208120400006E
:100350000002081205000000020812060000000258
:10036000081207000000020812080000000208122C
:100370000801000002081208020000020812090227
:1003800000000208120A0200000208120C0100001C
:100390000208120D0100000208120D0200000208FE
:1003A000120F0100000208121001000002081212D0
:1003B00000000002081212010000020812120200DE
:1003C00000020812120300000208121204000002C8
:1003D000081212050000020812120600000208129C
:1003E0001207000002081212080000020812120888
:1003F000010002081212080200020812120902008B
:10040000020812130902000208121508020002086D
:100410001216080200020812170802000208121839
:100420000802000208121908020002081219090243
:10043000000208121B0802000208121C0802000237
:1004400008121D0802000208121E0802000208120B
:100450001F080200020812200802000208122009E8
:100460000200020812200A0200020812200B0200F9
:10047000020812200C0200020812200D02000208DD
:1004800012200E0200020812200F020002081220A1
:1004900011010002081220120100020812201202AB
:1004A00000020812201203000208122012040002A7
:1004B000081220120500020812201206000208127B
:1004C000201207000208122012080002081220124F
:1004D0000801020812201208020208122012090262
:1004E00002081220120A020208122014090202084D
:1004F0001220150902020812201609020208122011
:10050000180802020812201908020208122019090C
:1005100002020812201B0802020812201C08020214
:100520000812201D0802020812201E0802020812EA
:10053000201F0802020812202008020208122020B0
:10054000090202081220200A0202081220200B02CF
:10055000000000000000000000000000000000009B
:10056000000000000000000000000000000000008B
:10057000000000000000000000000000000000007B
:10058000000000000000000000000000000000006B
:10059000000000000000000000000000000000005B
:1005A00000000000000000000000000A08280345C9
:1005B000295A0C0A510C010E0110001300141216D6
:1005C00063181F1A6217091E612006232D275F2753
:1005D0000A28082C602F57325E3400365E37553AB1
:1005E0005D3A453F3741264548483F4A5C4E604F9B
:1005F0005A5350552F573E585B5B165C5B5F6062E9
:10060000000A0B0A1D0A400A4F0B180B300B570C3F
:10061000120C4C0C450D0D0D1D0D490D590E010E02
:10062000090E2A0E320F040F140F490F591019101A
:100630003110491059111F11321155120912261289
:100640003E13021316133313461406142C144814C5
:100650005A145A15001614161E163C16461714176F
:100660000A175017461828181E18461846190A194E
:100670001419461950195A1A141A321A501B0A1B07
:10068000001B461B3C1C0A1C001C321C281C5A1C4C
:10069000501D1E1D281D281E4E649A715F56504223
:1006A0004064BFA08F868268A264EAC5A491877F58
:1006B000847F7E7C808B8C8C96A06F72FAD7B4A0DE
:1006C000948C87848689909DA69EA0AAC3850FE0FE
:1006D000B8B6B7B6A3B4CCB4B2B1B1B0AFC2AD9FE7
:1006E000948D9286888B90A2ADAFAAAA9999999978
:1006F000BCB4A09B9EA4AD8E8E8E8E8E8E8E8E8E62
:100700008E8E8E1000000000000013F00081FE0F9E
:10071000F81211F083B00FF87E103FC3FF0FF833CB
:10072000F037C3FE180C3311A082301FFC3E10ECD2
:1007300082FE0FF877F06482920FF8521064829272
:100740000FF81210B0863C008013F190866E07F00F
:1007500013110385C31FFC7FE1FF04400BF042002F
:1007600006064C10305FC00802583420504010007C
:10077000400CE05FC0100FFE1B185043FF80403A52
:10078000005FC01000402BF84200100FFE08404AE6
:10079000C0100040084092601000400840A6007061
:1007A00000401FF87FC01001001C8000001003FCF7
:1007B00038800001FF020809980000100D903F18D2
:1007C000FFC3FF80E018401A00FE00C0184012006E
:1007D0003303FC1D501201FF8F0439483200100111
:1007E000042B4863219301FC0A40C1E23001040854
:1007F000C000000000000000000003FE0406080A1C
:1008000010123FE22022202220226022A024602910
:10081000A03A7FF5AAAA5554010205060708090A5D
:100820000E0F1011122122212434353655567576BB
:1008300000000FF01FE827E443C243820380024018
:100840007E7E7FFE7C7E7C3E381C18180C300000BB
:1008500000FE838183FE000000FEC3C1C3FE0000D2
:1008600000FEE3E1E3FE000000FEF3F1F3FE000012
:1008700000FEFBF9FBFE000000FEFFFFFFFE000094
:10088000A400A0009B009700940090008B008600BD
:100890008600860083007F007A00760073006F0078
:1008A0006A0068004820204865204C692042652085
:1008B0004220204320204E20204F20204620204E42
:1008C00065204E61204D6720416C205369205020E7
:1008D00020532020436C204172204B202043612074
:1008E0005363205469205620204372204D6E2046C9
:1008F0006520436F204E69204375205A6E20476162
:10090000204765204173205365204272204B72209E
:100910005262205372205920205A72204E62204D7C
:100920006F20546321527520526820506420416723
:1009300020436420496E20536E205362205465206A
:100940004920205865204373204261204C61204398
:1009500065205072204E6420506D20536D204575E7
:1009600020476420546220447920486F204572203B
:10097000546D205962204C752048662054612057E0
:1009800020205265204F73204972205074204175F9
:1009900020486720546920506220426920506F210E
:1009A000417421526E2146722152612141632154CA
:1009B00068215061215520214E7021507521416DD3
:1009C00021436D21426B21436621457321466D21F0
:1009D0004D64214E6F214C72215266214462215395
:1009E00067214268214873214D7421447321526765
:1009F00021436E214E6821466C214D65214C7621A4
:100A00005473214F67210100000000000000000026
:100A100000000000000000020304000000000000CD
:100A20000000000005060708090A0B0C0000000082
:100A30000000000000000D0E0F1011121314151607
:100A40001718191A1B1C1D1E1F20212223242526BE
:100A50002728292A2B2C2D2E2F30313233343536AE
:100A600037380048494A4B4C4D4E4F505152535421
:100A7000555657580068696A6B6C6D6E6F7071726D
:100A80007374757600000000000000000000000094
:100A900000000000000000393A3B3C3D3E3F404131
:100AA000424344454647000000595A5B5C5D5E5F27
:100AB0006061626364656667000003081F051F1FAD
:100AC000151B1F11111F110E1F15111F05011F11DD
:100AD0001D1F041F001F0010101F1F041B1F1010DC
:100AE0001F061F1F011F1F111F1F05071F311F1F7B
:100AF000051B17151D011F011F101F0F100F1F0CC5
:100B00001F1B041B071C071915130C121E1F120CA8
:100B10001E12120C121F0C1A14041F052E2A1E1F5F
:100B2000021C001D00201D001F041A011F001E04CE
:100B30001E1E021E1E121E3E120C0C123E1E02062D
:100B400014120A020F121E101E0E100E1E081E1A7C
:100B5000041A2E281E1A12161F111F001F001D1521
:100B60001711151F07041F17151D1F151D01011F44
:100B70001F151F17151F001700001000653232CA1D
:100B8000653232CA656532323232653232CA6565E3
:100B90006532326565653232653232323232323236
:100BA0003232329797803232CA653232CA65653244
:100BB000323232653232CA65656532326565653218
:100BC000326532323232323232323232C0C0653283
:100BD00032CA653232CA656532323232653232CA61
:100BE0006565653232656565323265323232323280
:100BF0003232323232C0C065656565323265656554
:100C000032326532323232323232323232C0C0881F
:100C1000018801B801260106010601DC00260188D1
:100C2000018801B8010B02B801880106010601DC48
:100C3000002601880126010601F700DC00C40088B7
:100C40000126014A01260106010601DC0026014AAF
:100C5000012601060126010601F700DC00C400C4DC
:100C60000088018801B801260106010601DC002682
:100C70000188018801B8010B02B80188010601064C
:100C800001DC002601880126010601F700DC00C412
:100C900000880126014A01260106010601DC002622
:100CA000014A012601060126010601F700DC00C405
:100CB00000C40088018801B801260106010601DC94
:100CC00000260188018801B8010B02B801880106DD
:100CD000010601DC002601880126010601F700DC7F
:100CE00000C400880126014A01260106010601DC34
:100CF0000026014A012601060126010601F700DC53
:100D000000C400C4000000880126010601F700DCD1
:100D100000C400880126014A01260106010601DC03
:100D20000026014A01260106014B020B02F101B81F
:100D300001880188010102040810204080000000A1
:100D400000003E5B4F5B3E3E6B4F6B3E1C3E7C3E6D
:100D50001C183C7E3C181C577D571C1C5E7F5E1C7B
:100D600000183C1800FFE7C3E7FF0018241800FF35
:100D7000E7DBE7FF30483A060E2629792926407F2F
:100D8000050507407F05253F5A3CE73C5A7F3E1C3E
:100D90001C08081C1C3E7F14227F22145F5F005F2A
:100DA0005F06097F017F006689956A606060606008
:100DB00094A2FFA29408047E040810207E2010084C
:100DC000082A1C08081C2A08081E101010100C1EE7
:100DD0000C1E0C30383E3830060E3E0E0600000069
:100DE000000000005F00000007000700147F147F70
:100DF00014242A7F2A12231308646236495620508D
:100E00000008070300001C2241000041221C002AA8
:100E10001C7F1C2A08083E08080080703000080863
:100E2000080808000060600020100804023E5149D4
:100E3000453E00427F400072494949462141494DA3
:100E4000331814127F1027454545393C4A4949312A
:100E500041211109073649494936464949291E00A9
:100E60000014000000403400000008142241141453
:100E7000141414004122140802015909063E415D70
:100E8000594E7C1211127C7F494949363E414141FD
:100E9000227F4141413E7F494949417F090909017A
:100EA0003E414151737F0808087F00417F41002087
:100EB00040413F017F081422417F404040407F0273
:100EC0001C027F7F0408107F3E4141413E7F09099B
:100ED00009063E4151215E7F0919294626494949A3
:100EE0003203017F01033F4040403F1F2040201F4D
:100EF0003F4038403F6314081463030478040361DF
:100F000059494D43007F41414102040810200041EE
:100F100041417F0402010204404040404000030779
:100F2000080020545478407F2844443838444444CE
:100F300028384444287F385454541800087E090245
:100F400018A4A49C787F0804047800447D40002005
:100F500040403D007F1028440000417F40007C0459
:100F60007804787C080404783844444438FC182415
:100F7000241818242418FC7C0804040848545454E9
:100F80002404043F44243C4040207C1C2040201C7E
:100F90003C4030403C44281028444C9090907C4485
:100FA00064544C44000836410000007700000041C2
:100FB00036080002010204023C2623263C1EA1A1A1
:100FC00061123A4040207A38545455592155557988
:100FD000412154547841215554784020545579404A
:100FE0000C1E5272123955555559395454545939A9
:100FF000555454580000457C410002457D42000193
:10100000457C40F0292429F0F0282528F07C54550F
:1010100045002054547C547C0A097F49324949498F
:10102000323248484832324A4848303A4141217ABF
:101030003A42402078009DA0A07D39444444393D87
:101040004040403D3C24FF2424487E4943662B2FEA
:10105000FC2F2BFF0929F620C0887E090320545459
:1010600079410000447D413048484A3238404022AE
:101070007A007A0A0A727D0D19317D2629292F28D6
:10108000262929292630484D402038080808080814
:10109000080808382F10C8ACBA2F102834FA0000FE
:1010A0007B000008142A142222142A140895002216
:1010B0000095AA005500AAAA55AA55AA000000FF4B
:1010C00000101010FF00141414FF001010FF00FF98
:1010D0001010F010F0141414FC001414F700FF00AA
:1010E00000FF00FF1414F404FC141417101F101058
:1010F0001F101F1414141F00101010F00000000027
:101100001F101010101F10101010F010000000FF22
:10111000101010101010101010FF10000000FF141D
:101120000000FF00FF00001F10170000FC04F41473
:10113000141710171414F404F40000FF00F714142B
:101140001414141414F700F7141414171410101FA7
:10115000101F141414F4141010F010F000001F10DD
:101160001F0000001F14000000FC140000F010F02D
:101170001010FF10FF141414FF141010101F0000A3
:101180000000F010FFFFFFFFFFF0F0F0F0F0FFFFB6
:10119000FF0000000000FFFF0F0F0F0F0F38444447
:1011A00038447C2A2A3E147E02020606027E027E13
:1011B0000263554941633844443C04407E201E206C
:1011C00006027E020299A5E7A5991C2A492A1C4C11
:1011D0007201724C304A4D4D303048784830BC6214
:1011E0005A463D3E494949007E0101017E2A2A2A8C
:1011F0002A2A44445F444440514A444040444A51AE
:10120000400000FF0103E080FF000008086B6B084E
:101210003612362436060F090F0600001818000093
:10122000001010003040FF0101001F01011E0019D5
:101230001D1712003C3C3C3C000000000000000078
:101240000800020100000304070000000000000085
:10125000000200000000250028002B000000000014
:10126000240027002A0004040404040404040202E5
:101270000202020203030303030301020408102015
:101280004080010204081020010204081020821E80
:1012900011241FBECFEFD8E0DEBFCDBF11E0A0E02C
:1012A000B1E0EEE8F2E402C005900D92AA34B10775
:1012B000D9F725E0AAE4B1E001C01D92A73AB20730
:1012C000E1F719E0C8E4D9E004C02197FE010E94CB
:1012D0003A21C734D107C9F70E9420150C94452143
:1012E0000C94000090910101981324C0E1E5F2E113
:1012F000E4919FEF90930101E130B9F098F0E23072
:10130000C9F4909170009D7F9093700091E090934C
:10131000B0009091B100987F94609093B1001092CA
:10132000B30008C010926E0005C090916F009D7FC1
:1013300090936F0090E0FC01E35CFD4E2491FC0172
:10134000E658FD4E3491FC01EA59FD4EE491EE233E
:10135000B9F1222339F1233091F038F42130A9F08A
:10136000223001F584B58F7D12C0273091F02830EE
:10137000A1F02430B9F4809180008F7D03C080916A
:1013800080008F77809380000DC084B58F7784BDF7
:1013900009C08091B0008F7703C08091B0008F7D2D
:1013A0008093B000F0E0EE0FFF1FEE5AFD4EA591C6
:1013B000B4918FB7F894EC9130953E233C938FBF56
:1013C0000895CF92DF92EF92FF920F931F93CF93E6
:1013D000DF936C017A018B01C0E0D0E0CE15DF0510
:1013E00089F0D8016D918D01D601ED91FC910190AC
:1013F000F081E02DC6010995892B11F47E0102C010
:101400002196ECCFC701DF91CF911F910F91FF90F3
:10141000EF90DF90CF9008953FB7F89480918501C9
:1014200090918601A0918701B091880126B5A89B73
:1014300005C02F3F19F00196A11DB11D3FBFBA2F66
:10144000A92F982F8827820F911DA11DB11DBC01C6
:10145000CD0142E0660F771F881F991F4A95D1F78B
:1014600008954F925F927F928F929F92AF92BF9218
:10147000CF92DF92EF92FF920F931F93CF93DF9360
:1014800000D000D0CDB7DEB729011C2DA02EB12C85
:101490009C012A0D3B1D121613060CF0B3C18038B7
:1014A00091050CF0AFC1FB01EE0DF11D1E161F06DC
:1014B0000CF0A8C1603471050CF0A4C141155105B0
:1014C00009F4A0C1E62FE770FE2EFB0177FD3796E9
:1014D000A3E0F595E795AA95E1F7AE2F77FF04C055
:1014E000FF2011F0AFEFAE0F97FF05C0EE27FF27EB
:1014F000E81BF90B02C0E0E0F0E02038310524F0F1
:1015000020E8722E781A01C0702E7E1A6A2F0A2ED9
:10151000000C770BAF3F1CF4D62ED09401C0D12C19
:1015200021E03E2D377009F420E0E694E694E6943D
:10153000E20E6E0D711D693071051CF028E0E22E7F
:10154000EA1AED183D2D3A0FDC0120E83203A00D18
:10155000B11D1124AE0FBF1FD09EE00DF11D11244F
:101560004E0F5F1F81E090E04C010F2C02C0880CF1
:10157000991C0A94E2F7133009F403C1A0F4113066
:1015800009F4B5C0123009F03DC18FEF889DB0015C
:10159000899D700D1124609570957C836B835C80B0
:1015A0002E2D230F2BC01A3F31F01B3F09F02AC10B
:1015B0002E2D230F88C02E2D230F51C0FA01E00FCE
:1015C000F11FE491E89D6001E99DD00C1124DA82BD
:1015D000C98237FD07C0FC01E080EE2DE623CE2A4C
:1015E000FC01C082F11013C00F5F1F4F0196071559
:1015F00028F33F5F4A0D5B1DA058BF4F321709F417
:1016000001C1CD0189559E4F00E010E0F0CF373089
:101610005CF7FC01E058FF4FD080D520CA80DC2861
:10162000D082E2CFFA01E60FF71FE491E89D800136
:10163000E99D100D11241A83098337FD04C0FC01B4
:101640001081012B0083F11013C06F5F7F4F019653
:10165000671540F33F5F4A0D5B1DA058BF4F32171F
:1016600009F4D0C0CD0189559E4F60E070E0F0CF05
:1016700037305CF78C0100581F4FF801E080EA8199
:10168000EE2AF801E082E1CFFA01E00FF11FE491C8
:10169000E89DC001E99D900D11249A83898337FD4F
:1016A00005C08095FB01908189238083F11014C0CF
:1016B0000F5F1F4F6F5F7F4F071530F33F5F4A0D7E
:1016C0005B1DA058BF4F321709F49CC0BD0169557E
:1016D0007E4F00E010E0F0CF373054F7FB01E058C8
:1016E000FF4F8A818095908189238083E1CFC20159
:1016F0008E0F9F1F2E2D230F321709F483C0BD01BB
:1017000069557E4F6B0100E010E0071590F5FC0174
:10171000E00FF11FE491E89DB001E99D700D1124E7
:10172000609570957C836B83FA01E00FF11FE49163
:10173000E89D2001E99D500C11245A82498237FD11
:1017400005C0F60170816723462A4082FF2059F0C8
:1017500037304CF4F601E058FF4F70816C816723FD
:101760007A81672B60830F5F1F4FFFEFCF1ADF0A6D
:10177000CCCF3F5F4A0D5B1D8A0D9B1DA058BF4F0C
:10178000BBCFC72CD12CE40FF51FA955BE4F60E885
:1017900070E06C197D09AC18BD088501000F111FA0
:1017A000572D2E2DCF93DF93ED01EF96EF962296D6
:1017B000A590C590FF2059F0A89C5001C89C6001DD
:1017C00037302CF4E880D094ED20EB28E9923323D5
:1017D0003AF0EC90C094EC20EA28ED920C94F10BD6
:1017E00011965A9529F72A9551F0572D33951124C2
:1017F000E00FF11DA60FB11DC60FD11DD9CFDF918E
:10180000CF9111240F900F900F900F90DF91CF91F7
:101810001F910F91FF90EF90DF90CF90BF90AF900E
:101820009F908F907F905F904F9008950895CF92F2
:10183000DF92EF920F931F93CF93DF93FC012681EA
:101840006A3031F4858184836185260F268392C0B6
:10185000962FEF01A48161E0620F9A334CF490332C
:10186000ACF49132B1F09E3209F04DC01FE312C0CA
:1018700091340CF448C09B353CF08FE9890F8A31D4
:1018800008F041C019EB03C01FEB01C014E0190FB1
:1018900001C01EE32F81062E000C770B0A2E000CD0
:1018A000BB0B213009F038C0EAEBFAE00491EBEB16
:1018B000FAE0E490112369F1E02FF0E02E2D269557
:1018C00026952695422F50E021E030E08E2D87703E
:1018D00011F420E030E0240F351FE29F6001E39F08
:1018E000D00CF29FD00C112496011203A001139F7B
:1018F000500D11244454554F9AEFC92E20E030E08A
:10190000CD010E94310A88858D5F9C81890F8C836F
:1019100031C04CEB5AE0F0CFEAEBFAE00491EBEB8C
:10192000FAE0E490112309F1E02FF0E02E2D269546
:1019300026952695422F50E021E030E08E2D8770CD
:1019400011F420E030E0240F351FE29F6001E39F97
:10195000D00CF29FD00C112496011203A001139F0A
:10196000500D11244454554F02C04CEB5AE08BEFFC
:10197000C82EC4CF81E090E0DF91CF911F910F91ED
:10198000EF90DF90CF900895089580E090E0089563
:101990000E9440211F920F920FB60F9211242F9395
:1019A0003F934F935F936F937F938F939F93AF93E7
:1019B000BF93EF93FF9380918C0190918D01A09143
:1019C0008E01B0918F01892B8A2B8B2B51F1809145
:1019D0008B01E0918901F0918A01908189278083B0
:1019E00080918C0190918D01A0918E01B0918F0119
:1019F000181619061A061B06C4F480918C019091E2
:101A00008D01A0918E01B0918F010197A109B109BB
:101A100080938C0190938D01A0938E01B0938F01E0
:101A200004C0809101010E947209FF91EF91BF9162
:101A3000AF919F918F917F916F915F914F913F9166
:101A40002F910F900FBE0F901F901895DC01ED9114
:101A5000FC910190F081E02D09946115710579F0F8
:101A6000FB0101900020E9F73197AF01461B570BAE
:101A7000DC01ED91FC910280F381E02D099480E07E
:101A800090E008954F925F926F927F92EF92FF9253
:101A90000F931F93CF93DF93CDB7DEB7A1970FB608
:101AA000F894DEBF0FBECDBF7C01FA01CB0119A2B5
:101AB000223008F42AE08E010F5D1F4F422E512C78
:101AC000612C712CBF01A30192010E94DC1EF9015F
:101AD000CA01015011096A3014F4605D01C0695CEB
:101AE000D8016C93232B242B252B61F7B801C70158
:101AF0000E942D0DA1960FB6F894DEBF0FBECDBF8C
:101B0000DF91CF911F910F91FF90EF907F906F9099
:101B10005F904F9008950C942D0D8F929F92AF92ED
:101B2000BF92CF92DF92EF92FF926B017C010E94F5
:101B30000C0A4B015C01C114D104E104F104F1F081
:101B40000E940C0ADC01CB0188199909AA09BB097A
:101B5000883E9340A105B10570F321E0C21AD10877
:101B6000E108F10888EE880E83E0981EA11CB11CE4
:101B7000C114D104E104F10419F7DDCFFF90EF9017
:101B8000DF90CF90BF90AF909F908F9008952FB728
:101B9000F89460918101709182018091830190910C
:101BA00084012FBF08951F920F920FB60F92112438
:101BB0002F933F938F939F93AF93BF938091810116
:101BC00090918201A0918301B091840130918001B4
:101BD00023E0230F2D3720F40196A11DB11D05C070
:101BE00026E8230F0296A11DB11D2093800180934A
:101BF000810190938201A0938301B093840180912D
:101C0000850190918601A0918701B091880101968C
:101C1000A11DB11D8093850190938601A09387013A
:101C2000B0938801BF91AF919F918F913F912F9178
:101C30000F900FBE0F901F901895339902C080E847
:101C400001C080E04A9B8061319B80624B9B806435
:101C50004C9B8860329B846008958093BB0084E82D
:101C60008093BC008091BC0087FFFCCF089584EA7C
:101C70008093BC008091BC0087FFFCCF88E70C9468
:101C80002D0E60387105D0F440345105B8F4E5E309
:101C9000FDE080E1849FD001A0781124A60F477059
:101CA000E40FF11D8491A955BE4F222319F06C91C8
:101CB000862B03C080956C9186238C9308952F9278
:101CC0003F924F925F926F927F928F929F92AF92CC
:101CD000BF92CF92DF92EF92FF920F931F93CF9319
:101CE000DF93CDB7DEB729970FB6F894DEBF0FBEEE
:101CF000CDBFFC016A3069F425898189928938E079
:101D0000239F800D911D1124928B818B108A178641
:101D1000AAC06D3009F4A7C099878887F5883488F0
:101D20002388618872880785108900381105C4F0FE
:101D3000A885B98555962C915597422F50E01F964E
:101D40008D919C915097B6E02B9F800D911D112491
:101D5000E885F985908B8787268921116EC083C01D
:101D6000F0E46F16710424F7C80125E0F29E800D9F
:101D7000911D112418161906DCF68F2D90E09C8316
:101D80008B83C301A8E0FA9E800D911D11241816C3
:101D9000190674F6B5E06B9FB0011124FB01E35CFA
:101DA000F24FFA83E98330E08885998504969E8313
:101DB0008D83E981FA81E490353009F4E12C430107
:101DC00088E0482EE0FC02C0532C01C0522C511078
:101DD0000BC0321009C0E6944A948B819C81880E16
:101DE000991E4110EFCF1BC068018C2D801B8F15F1
:101DF00090F754018A2D88198F1568F4252DA501B7
:101E0000B6018D819E813F830E94410E9FEFA91AEA
:101E1000B90A3F81EFCFAFEFCA1ADA0AE6CF3F5FC8
:101E2000EB81FC810E0F1F1F89819A8101969A8395
:101E30008983363009F0BDCF7BCF6AEF6403900110
:101E4000659F300D112420583F4F281739075CF447
:101E5000A885B985ED91FC9111970190F081E02D55
:101E60006AE0CD01099581E090E029960FB6F894DB
:101E7000DEBF0FBECDBFDF91CF911F910F91FF90BD
:101E8000EF90DF90CF90BF90AF909F908F907F901A
:101E90006F905F904F903F902F9008958F929F92F8
:101EA000AF92BF92CF92DF92EF92FF92CF930E94B8
:101EB0001D0E83FF11C00E941D0E82FF0DC0809178
:101EC0004A01811147C08FEF80934A0160ED77E0AE
:101ED00080E090E00E948D0D80914A018F3F71F16A
:101EE00081111AC080917F018439B0F010927F0176
:101EF0000E94C70D0E94112020E030E040E251E432
:101F00000E94701F0E94E21F60937B0170937C010E
:101F100080937D0190937E01E0917F01F0E0EE0FD0
:101F2000FF1FCF01815F934FFC0125913491232B3B
:101F3000B9F020917A01211113C081C089E0CF91BD
:101F4000FF90EF90DF90CF90BF90AF909F908F90D9
:101F50000C9472098F3F09F0B9CF10924A01B6CFA5
:101F600089E00E9472090E94C70DF0907F01EF2D59
:101F7000F0E0E458F44FC4910E94112020E030E0DA
:101F800040E251E40E94701F4B015C0180917B0193
:101F900090917C01A0917D01B0917E01BC01CD01A9
:101FA0006C0F711D811D911D0E9411209B01AC01C0
:101FB000C501B4010E94C32087FD27C280917A0128
:101FC00081110EC081E080937A010E94C70D609359
:101FD000760170937701809378019093790115C20F
:101FE0000E94C70D8090760190907701A0907801B3
:101FF000B09079012FE0820E911CA11CB11C6815D4
:1020000079058A059B0508F400C210927A01F394C1
:10201000F0927F010E94C70D0E94112020E030E065
:1020200040E251E40E94701F0E94E21F60937B0116
:1020300070937C0180937D0190937E01E6C1FC0149
:102040008590949080910101893021F08F3F09F0B3
:102050008ACF04C0E1E5F2E1C49172C089E08093C7
:102060000101E1E5F2E1C491CF3F09F47CCFC13039
:1020700009F1C23009F441C0C11162C014BC15BCE1
:1020800084B5826084BD85B5816085BDEFE6F2E1EF
:10209000E491F0E0EE0FFF1FEE5AFD4E8591949112
:1020A00090936D0180936C01E3E8F2E1E491E09399
:1020B0006B0148C0109280001092810080918100D5
:1020C000886080938100809181008160809381008D
:1020D000EFE6F2E1E491F0E0EE0FFF1FEE5AFD4E65
:1020E0008591949190936A0180936901E3E8F2E10C
:1020F000E491E0936801C1E025C01092B000109215
:10210000B1008091B00082608093B0008091B100F6
:1021100081608093B100EFE6F2E1E491F0E0EE0F30
:10212000FF1FEE5AFD4E8591949190938A01809302
:102130008901E3E8F2E1E491E0938B01C2E002C09F
:10214000C7FD11CF0E940913A12CB12C8C2F8D7FBC
:1021500009F0A0C060E072E18AE790E0A501940177
:102160000E94BD1E69017A01DA01C9010197A10926
:10217000B1098F3F9105A105B10509F008F442C0EE
:1021800060E472E48FE090E0A50194010E94BD1E1E
:10219000DA01C9010197A109B109C230E1F48F3F09
:1021A0009105A105B10509F008F42DC160E970EDB4
:1021B00083E090E0A50194010E94BD1EDA01C901EF
:1021C0000197A109B1098F3F9105A105B10509F05A
:1021D00088F523E058C08F3F9105A105B105A1F016
:1021E00098F068E478EE81E090E0A50194010E9407
:1021F000BD1EDA01C9010197A109B109CC2309F477
:10220000B6C0F9C021E001C022E0CC2371F03BC090
:10221000D701C6012AE0B595A795979587952A9588
:10222000D1F70197A109B10925E035B5387F232BF6
:1022300025BD61C068E478EE81E090E0A5019401DD
:102240000E94BD1EDA01C9010197A109B1098F3FA2
:102250009105A105B10509F008F487C064E274EFA7
:1022600080E090E0A50194010E94BD1EDA01C90141
:102270000197A109B1098F3F9105A105B10511F0A1
:1022800008F093C025E03091B100387F232B2093D4
:10229000B1002BC060E072E18AE790E0A5019401F3
:1022A0000E94BD1EDA01C9010197A109B109009779
:1022B00021E0A207B10578F068E478EE81E090E0D3
:1022C000A50194010E94BD1EDA01C9010197A1096F
:1022D000B10933E001C031E0C13039F4209181000F
:1022E000287F232B2093810018C0C130B1F0C23069
:1022F00049F1C11138CE87BD8FEF9FEFDC0180938C
:10230000720190937301A0937401B0937501809151
:102310006E00826080936E0026CE90938900809339
:1023200088008FEF9FEFDC0180936E0190936F0127
:10233000A0937001B093710180916F0082608093CF
:102340006F0011CE8093B3008FEF9FEFDC0180937D
:102350008C0190938D01A0938E01B0938F01809199
:102360007000826080937000FECD24E08CCF8F3FA0
:102370009105A105B105B9F0B0F062E17AE780E01E
:1023800090E0A50194010E94BD1EDA01C9010197E8
:10239000A109B1098F3F9105A105B10511F008F020
:1023A00037CF24E042CF23E040CF62E17AE780E0FC
:1023B00090E0A50194010E94BD1EDA01C9010197B8
:1023C000A109B1098F3F9105A105B10591F088F0F0
:1023D000D701C6013AE0B595A795979587953A95A7
:1023E000D1F70197A109B109CC2309F41DCF27E04A
:1023F0004ACF26E00ACF8F3F9105A105B10509F02C
:10240000A0F624E002CF22E03ECFCF91FF90EF90E4
:10241000DF90CF90BF90AF909F908F9008959C01D8
:10242000240F311D1216130674F5803891055CF5E2
:10243000FC0197FF02C0E0E0F0E02138310514F024
:1024400020E830E02E1BAB014770552781E001C02A
:10245000880F4A95EAF777FF02C0695F7F4F93E0E4
:10246000759567959A95E1F77695762F6627779516
:102470006795E60FF71FE955FE4F215020F0908138
:10248000982B9193FACF08950E94370E80E48093A1
:10249000BB0084E88093BC00E7EAF1E09091BC00C7
:1024A00097FFFCCF91919093BB008093BC0095E087
:1024B000E73AF90799F78091BC0087FFFCCF84E9E0
:1024C0008093BC008091BC0084FDFCCF08952F92C6
:1024D0003F924F925F926F927F928F929F92AF92B4
:1024E000BF92CF92DF92EF92FF920F931F93CF9301
:1024F000DF9300D000D0CDB7DEB7E22EF12C9C01E7
:102500002E0D3F1D37FD61C0803891050CF05DC078
:1025100010E09B01200F311F37FD57C0603471055B
:102520000CF053C03A012B011C01C70107969C0116
:1025300093E0359527959A95E1F73A832983A12C65
:10254000B12CC12CD12CC016D1060CF03EC01C827F
:102550001B824601840C951CEB81FC81EE15FF0566
:1025600064F5EB81FC8183E0F595E7958A95E1F7C9
:10257000EA0DFB1DE60DF71DE491F0E08B819C81D7
:102580008770992720E830E002C0359527958A9515
:10259000E2F7E223F323EF2B51F021E0A4016B815A
:1025A0007C81620D731D84E991E00E94410E8B8154
:1025B0009C8101969C838B83CFCFFFEFCF1ADF0ADC
:1025C00029813A81A20EB31EBECF0F900F900F90BB
:1025D0000F90DF91CF911F910F91FF90EF90DF90BF
:1025E000CF90BF90AF909F908F907F906F905F90B3
:1025F0004F903F902F90089580E0E7EAF1E081113D
:102600008FEF002481938193819381930394D1F779
:102610000895E3E8F2E12491EFE6F2E18491882362
:1026200099F090E0880F991FFC01E45AFD4EA591A6
:10263000B491FC01EE5AFD4E859194918FB7F894B8
:10264000EC91E22BEC938FBF0895CF92DF92EF9243
:10265000FF920F931F93CF93DF936B01770FEE08D9
:10266000FF08F7FE1BC0EC016DE20E94260D8C01F5
:1026700044275527BA014C195D096E097F092AE0E4
:10268000CE010E94420D800F911FDF91CF911F91CB
:102690000F91FF90EF90DF90CF9008952AE0B7015F
:1026A000A601DF91CF911F910F91FF90EF90DF90E6
:1026B000CF900C94420D5F926F927F928F929F9277
:1026C000AF92BF92CF92DF92EF92FF920F931F9340
:1026D000CF93DF93EC018B017A01A901461B570BC5
:1026E00057FF03C0519541955109C7018C1B9D0BA4
:1026F00097FF03C0919581959109552453948417B0
:10270000950714F0512C0AC09E2D8F2D7901292F89
:10271000382F9C2F8D2FE801092F182FEC16FD065E
:1027200054F4902F812F8901292F382F9C2F8D2F22
:10273000E701E92EF82E37016C1A7D0A5901A01A1B
:10274000B10AB7FE03C0B194A194B108630177FE4A
:1027500003C08FEFC81AD80AD594C794021713077D
:1027600014F08FEF01C081E0882E880F9908EC16D5
:10277000FD06B4F021E0552019F0AE01B80102C009
:10278000A801BE0184E991E00E94410ECA18DB084D
:10279000D7FE04C0080D191DC60CD71C2196E7CF23
:1027A000DF91CF911F910F91FF90EF90DF90CF902D
:1027B000BF90AF909F908F907F906F905F900895A3
:1027C000DF92EF92FF920F931F93CF93DF937C01E1
:1027D000D22E8B01040F111DEB0177FF0EC0C0E05C
:1027E000D0E00BC0C417D5077CF42D2DAE01B70186
:1027F00084E991E00E94410E2196A801013411055F
:102800008CF340E450E0EECFDF91CF911F910F9118
:10281000FF90EF90DF900895EF92FF920F931F9338
:10282000CF93DF93EC018B01E42EF22E603471051F
:1028300010F40E940F12B8016F0D711D61507109E3
:102840006034710520F44E2DCE010E940F1221E05C
:102850004F2DB801CE010E94E013CE018E0D911DC7
:1028600021E04F2DB8010197DF91CF911F910F917A
:10287000FF90EF900C94E0134F925F926F927F92D3
:102880008F929F92AF92BF92CF92DF92EF92FF9280
:102890006B017C01B42E9B01AC010E943521882381
:1028A00019F06EE371E027C026013701E89477F84C
:1028B0002FEF3FEF4FE75FE7C301B2010E943521E1
:1028C00081110DC02FEF3FEF4FE75FE7C301B2016A
:1028D0000E946B1F18161CF462E471E00CC02FEF0D
:1028E0003FEF4FE75FE4C701B6010E94C32018160F
:1028F00094F466E471E080E991E0FF90EF90DF905E
:10290000CF90BF90AF909F908F907F906F905F908F
:102910004F900C942D0D2FEF3FEF4FE75FECC70169
:10292000B6010E946B1F87FDE4CF20E030E0A901D3
:10293000C701B6010E946B1F87FF0BC06DE280E9E3
:1029400091E00E94260D4C01F7FAF094F7F8F0940C
:1029500002C0812C912CA12C60E070E080E09FE30C
:10296000AB1440F420E030E040E251E40E94701FDC
:10297000A394F6CF9B01AC01C701B6010E94FF1ED4
:102980002B013C010E94E21F6B017C010E9411207F
:102990009B01AC01C301B2010E94FE1E2B013C0150
:1029A0002AE0B701A60180E991E00E94420D7C0176
:1029B000E80CF91CBB2039F06EE280E991E00E943E
:1029C000260DE80EF91EDB2CDD2031F120E030E091
:1029D00040E251E4C301B2010E94C8202B013C0136
:1029E0000E94E21F4B01A12CB12C2AE0B501A401E9
:1029F00080E991E00E94420DE80EF91EC501B40184
:102A00000E9411209B01AC01C301B2010E94FE1E75
:102A10002B013C01DA94D8CFC701FF90EF90DF90F3
:102A2000CF90BF90AF909F908F907F906F905F906E
:102A30004F90089568EE73E080E090E00C948D0D67
:102A4000CF93DF9300D000D000D0CDB7DEB778941D
:102A500084B5826084BD84B5816084BD85B58260A3
:102A600085BD85B5816085BD80916E008160809354
:102A70006E001092810080918100826080938100BD
:102A800080918100816080938100809180008160CD
:102A9000809380008091B10084608093B100809128
:102AA000B00081608093B00080917A008460809350
:102AB0007A0080917A00826080937A0080917A0017
:102AC000816080937A0080917A00806880937A0098
:102AD0001092C10081EC80937C0088B18E6088B92F
:102AE00087B18E6087B98BB18C618BB98AB18C6FDD
:102AF0008AB98BB1806E8BB91092B90088E480934B
:102B0000B8000E94370E80E00E942D0E67EAE62E84
:102B100060E0F62E1FE11E0DF70184910E942D0E3C
:102B2000FFEFEF1AFF0A1E11F7CF84E98093BC0074
:102B30008091BC0084FDFCCF81E08093B8000E94AE
:102B400009138FEF80934A015FE3E52EF12C0E9479
:102B5000FC121092A2011092A1011092A0011092F9
:102B60009F0108E028E443EA51E0B7018AE190E0E0
:102B70000E9467122EE2E216F10451F401E128E608
:102B800046EC50E069E070E08FE090E00E94671250
:102B90000E94441231E0E31AF1086DE2E616F104F6
:102BA000B1F668EE73E080E090E00E948D0D0E9427
:102BB0004E0F0E94C70D0091590110915A012091AA
:102BC0005B0130915C010C591F4F2F4F3F4F601735
:102BD00071078207930708F467C50E94C70D6093C9
:102BE000590170935A0180935B0190935C010E949C
:102BF0001D0E87FF0AC080916401882331F0815047
:102C00008093640181E0809300010E941D0E84FF87
:102C10000AC080916401893030F48F5F8093640131
:102C200081E0809300010E941D0E85FF0AC0809103
:102C30006701882331F081508093670181E08093A0
:102C400000010E941D0E86FF0AC08091670181313C
:102C500030F48F5F8093670181E0809300010E94D0
:102C60001D0E282F287083FF1FC58091640190914D
:102C7000670172E1879FF0011124E90FF11DEA5FFE
:102C8000F54FE491EE2309F4EEC481E08093000156
:102C900089830E941D0E82FDE2C40E944E0F0E9495
:102CA000C70D0091590110915A0120915B0130919B
:102CB0005C010C591F4F2F4F3F4F60177107820760
:102CC000930710F10E94C70D6093590170935A0148
:102CD00080935B0190935C010E941D0E85FF08C0EC
:102CE0009981913029F09150998381E0809300017E
:102CF0000E941D0E86FF08C0E981E33028F4EF5FD3
:102D0000E98381E08093000110910001112309F211
:102D10001092580110925701109200010E94FC126B
:102D20001092A2011092A1011092A00110929F0195
:102D3000F981F13009F0B8C182E08093A5018CE3FC
:102D400090E09093A00180939F0180916701E091B2
:102D5000640102E10E9FF0011124E80FF11DEA5F0A
:102D6000F54FE491F0E03197BF01660F771FE60F52
:102D7000F71FEC55F74F649180E991E00E94260D12
:102D80008AE490E09093A00180939F011092A201A9
:102D90001092A10180916701E09164010E9FF00102
:102DA0001124E80FF11DEA5FF54FE49123E0E29F63
:102DB000F0011124EE55F74F649180E991E00E94F3
:102DC000260D8CE590E09093A00180939F011092D6
:102DD000A2011092A1018091670190916401099F65
:102DE00090011124280F311DB9016A5F754F7B01D5
:102DF000FB01949123E0929FF0011124ED55F74FD0
:102E0000E491E13251F400E120E140E358E063E174
:102E100070E080E790E00E94671288E198E0FC0192
:102E20002491F7013491231301C010E00196F8E0DA
:102E300080339F07A1F710935601112351F000E151
:102E400020E148EF57E064E270E080E790E00E9404
:102E50006712F701449150E060E070E02AE080E9F9
:102E600091E00E94420D81E08093A5010BE028E3F0
:102E700044EA57E061E070E082E090E00E9467126F
:102E800028E347E557E065E170E082E090E00E94CA
:102E900067120CE028E343E057E068E270E081E06D
:102EA00090E00E9467128DE390E09093A0018093E0
:102EB0009F0186E190E09093A2018093A10180910F
:102EC0006701E091640122E1E29FF0011124E80F23
:102ED000F11DEA5FF54F84918C36B0F4E491F0E097
:102EE000E956F94FE4916E2F70E080E090E00E9487
:102EF000112020E030E048EC52E40E94701F42E0D4
:102F000050E00E943C1406C062E271E080E991E06A
:102F10000E948B0D8DE390E09093A00180939F0120
:102F20008CE290E09093A2018093A101209167012F
:102F30008091640132E1839FC0011124820F911DB1
:102F40008A5F954FFC012491253008F033C024910D
:102F5000E22FF0E0EE0FFF1FE755FA4F6491FC01FE
:102F60008491E82FF0E0EE0FFF1FE655FA4F149121
:102F700070E080E090E00E94132020E030E040E22A
:102F800051E40E94701F6B017C01612F70E080E0B2
:102F900090E00E94132020E030E04AE754E40E94D1
:102FA000701F9B01AC01C701B6010E94FF1E43E0E8
:102FB00050E063C0FC0124912C3268F52491E22F8B
:102FC000F0E0EE0FFF1FE755FA4F6491FC0184918A
:102FD000E82FF0E0EE0FFF1FE655FA4F149170E076
:102FE00080E090E00E9413206B017C01612F70E073
:102FF00080E090E00E94132020E030E048EC52E4B2
:103000000E94701F9B01AC01C701B6010E94FF1E08
:1030100042E050E032C0FC012491E22FF0E0EE0FDC
:10302000FF1FE755FA4F6491FC018491E82FF0E00F
:10303000EE0FFF1FE655FA4F14912AE0629FF00150
:103040001124BF01FF0F880B990B0E9413206B0105
:103050007C01612F70E080E090E00E94132020E06E
:1030600030E040E251E40E94701F9B01AC01C701B7
:10307000B6010E94FF1E41E050E00E943C1423E292
:1030800030E040E850E063E270E080E090E00E94D1
:103090005B1321E130E040E850E061E170E080E066
:1030A00090E00E945B13D8C23981323009F0EDC143
:1030B000E0916401E83018F4E093550109C0E8306C
:1030C00011F485E003C0E93019F486E080935501DE
:1030D0008091670162E1E69FF0011124E80FF11D84
:1030E000EA5FF54FE491EE3219F483E080935501E5
:1030F00021E041E26EE070E08BE090E00E94E0139E
:10310000EE24E394F12C00E010E060E1262E312C57
:1031100070EE872E99249A94E1EFCE2EDD24DA9476
:103120000F5F1F4F92E0E90EF11CCE0CDF1C422C0A
:10313000440C439421E0442D3EE1A32EB12CA2186F
:10314000B308B501C8010B960E94E0134EE1642E4E
:10315000712C601A710A21E04E2DB301C1010B964A
:103160000E94E01321E0442DB5018BE090E0801B2C
:10317000910B0E94E01321E04E2DB3018BE090E013
:10318000821993090E94E013021513055CF4D7FC21
:10319000C7CF71E0271A310882E0880E911CC80C55
:1031A000D91CBECF3BE188248394912C809155019A
:1031B00090E00196881599050CF4C8C0E32FF0E063
:1031C000FE83ED8366246394712C6E1A7F0ACF010F
:1031D0009195819591092C01440C551CAF01425EDB
:1031E0005F4F21E06BE070E084E991E03C830E9456
:1031F000410E4EE150E06D817E81461B570B21E070
:103200006BE070E084E991E00E94410E6D817E8167
:10321000655F7F4F21E04EE150E084E991E00E943C
:10322000410E6BE070E08D819E81681B790B21E07F
:103230004EE150E084E991E00E94410E00E010E090
:1032400022242394312C3C818D819E8108171907FB
:103250000CF077C077FC0AC0ED81FE813197FE83C8
:10326000ED83F2E04F0E511C640C751C0F5F1F4F75
:1032700022E0220E311C620C731C58016BE0A60E7A
:10328000B11C21E0ED80FE807EE1E70EF11CA7017C
:10329000B50184E991E03C830E94410E7BE0C72E9A
:1032A000D12CC01AD10A21E0A701B60184E991E02E
:1032B0000E94410E21E0EEE1EE2EF12C8D819E81E7
:1032C000E81AF90AA701B50184E991E00E94410ECC
:1032D00021E0A701B60184E991E00E94410E780146
:1032E0009EE1E90EF11C21E0A701CD80DE80EBE03C
:1032F000CE0ED11CB60184E991E00E94410E21E07E
:10330000A701FBE0EF2EF12C6D817E81E61AF70A12
:10331000B70184E991E00E94410EAEE1AA2EB12CE2
:10332000A01AB10A21E0A501B60184E991E00E944A
:10333000410E21E0A501B70184E991E00E94410E10
:1033400082CF9FEF891A990A315F30CF1092A30183
:1033500011E01093A4011092A00110929F01EBE1E3
:10336000F0E0F093A201E093A10168E271E080E94E
:1033700091E00E948B0D88E090E09093A0018093F3
:103380009F012BE130E03093A2012093A1018091B5
:103390006701E091640132E1E39FF0011124E80F3D
:1033A000F11DEA5FF54FE4914E2F50E060E070E0D0
:1033B0002AE080E991E00E94420D1093A30110924F
:1033C000A4010DE110E020E04DE06AE170E0C801E9
:1033D0000E94E0130F5F1F4F0C371105A1F737E272
:1033E000C32EA12CB12C4CE1F42E52E1E52E67E066
:1033F000D62E8091550190E08A159B050CF42CC1C6
:10340000C0925001C0924F01F0925101809167012A
:10341000E0916401EE9EF0011124E80FF11DEA5FD6
:10342000F54F84918936B8F4849190E00197D89E45
:10343000F001D99EF00D1124EA0DFB1DEF58FD4F50
:10344000E4914E2F50E060E070E02AE08BE491E0E0
:103450000E94420D14C00FE612E0F8016491662349
:1034600071F0E0914B01F0914C010190F081E02D61
:103470008BE491E009950F5F1F4F892B71F7FFEFE8
:10348000AF1ABF0A2EE0C20EB4CF3981333009F033
:10349000E3C082E08093A5010CE028E54BEE51E00B
:1034A00061E070E086E190E00E94671221E040E870
:1034B00060E170E080E090E00E940C1420E841E0C0
:1034C00060E170E080E490E00E940C1480E190E004
:1034D0009093A00180939F0162E170E07093A2013C
:1034E0006093A1016AE271E080E991E00E948B0D96
:1034F00085E590E09093A00180939F01E2E1F0E0E8
:10350000F093A201E093A1016EE271E080E991E005
:103510000E948B0D2BE130E03093A00120939F019E
:1035200068E270E07093A2016093A101809167014D
:10353000E091640112E11E9FF0011124E80FF11DDA
:10354000EA5FF54F24918091550130E02150310917
:1035500007E0029FF001039FF00D1124E80FF11D19
:10356000EF58FD4FE4914E2F50E060E070E02AE00C
:1035700080E991E00E94420D8FE590E09093A001D8
:1035800080939F01E8E2F0E0F093A201E093A101B3
:1035900080915601882319F062E371E056C02091B2
:1035A000670180916401189FC0011124820F911D51
:1035B0008A5F954FFC0124914091550150E030E025
:1035C00021503109029FF001039FF00D1124E40FF7
:1035D000F51FEF58FD4FE491E430F0F2FC016491E7
:1035E00070E061507109069F9001079F300D112412
:1035F000FA01E20FF31FEF58FD4FE491E83009F4B0
:10360000CBCFFC01849190E00197089FF001099FC6
:10361000F00D1124E40FF51FEF58FD4FE49168E021
:1036200070E06E1B710980E991E00E94251380E52E
:1036300090E09093A00180939F0128E230E03093C6
:10364000A2012093A1016CE371E080E991E00E9466
:103650008B0D81E08093A5010E9444121ACB81E07A
:103660008093000121C0923049F4853039F481E023
:10367000809367012093640180930001809167012A
:10368000823061F480916401863041F481E080935E
:10369000670199E0909364018093000168EC70E009
:1036A00080E090E00E948D0D80910001882309F454
:1036B000DDC20E94FC121092A2011092A101109290
:1036C000A00110929F018091670190E00397909371
:1036D0006601809365018091640190E00197909369
:1036E0006301809362010FE010E083E1282E312C0A
:1036F000EE24E394F12C22E1622E26E0200F2A83AF
:1037000028013DE0430E511C61E0600F6B8379E0BE
:10371000700F79838FE090E09E838D8341E1742E5A
:10372000CC24C394D12CF4E0CF16D104C1F422E010
:10373000E216F104A1F4BFE3AB2EB12C21E041E18C
:103740006FE170E0C5010E94E0133FEFA31AB30AD6
:1037500060E5A616B10491F71092520103C071E022
:1037600070935201209165013091660137FD04C1CB
:103770008091620190916301223131050CF0FCC00F
:103780008A30910508F0F8C0689E5001699EB00C1F
:103790001124A9014A0D5B1DFA01EA5FF54F5F0193
:1037A0004491442309F494C0F4E0CF16D10421F4E9
:1037B00022E0E216F10439F021E141E1B8018D8106
:1037C0009E810E940C147092500170924F013B81B7
:1037D00030935101F501449150E060E070E02AE03F
:1037E0008BE491E00E94420D7092500170924F0163
:1037F000F981F09351018091620190916301689E7B
:10380000F001699EF00D112480916501909166018F
:10381000E80FF91FEA5FF54FE491F0E03197BF013F
:10382000660F771FE60FF71FEC55F74F64918BE497
:1038300091E00E94260D8D81895F809350018093D5
:103840004F01298120935101809162019091630180
:10385000689EF001699EF00D1124809165019091A0
:103860006601E80FF91FEA5FF54FE49133E0E39F4B
:10387000F0011124EE55F74F64918BE491E00E9422
:10388000260D8D81845F8093500180934F01698163
:10389000609351018091620190916301689EF001F3
:1038A000699EF00D11248091650190916601E80FE9
:1038B000F91FEA5FF54FE49173E0E79FF0011124EF
:1038C000ED55F74F64918BE491E00E94260D54C0B2
:1038D00022303105D9F585309105C9F484E0C81648
:1038E000D10421F492E0E916F10439F021E141E13B
:1038F000B8018D819E810E940C14709250017092CB
:103900004F01EA81E093510164E371E01AC0069728
:10391000E9F4F4E0CF16D10421F422E0E216F10438
:1039200039F021E141E1B8018D819E810E940C14A2
:103930007092500170924F013A813093510168E3C7
:1039400071E08BE491E00E948B0D16C09201AD8076
:10395000BE806DE0A60EB11CA501B1018D809E80D8
:1039600084E0880E911CC4010E945B139201A401A3
:10397000B101C5010E945B138091650190916601C0
:10398000019690936601809365019FEFC91AD90A49
:10399000E0E17E0E2D813E81205F3F4F3E832D83EF
:1039A00031E87312C0CE609162017091630167309B
:1039B000710580F483E090E09093A00180939F01D3
:1039C0003092A2012092A1016F5F7F4F80E991E0C8
:1039D0000E9425138091670190E003979093660100
:1039E00080936501809162019091630101969093AB
:1039F0006301809362019FEFE91AF90AE0E12E0E5C
:103A0000311C005F1F4FF4E0EF16F10409F075CE92
:103A100080916401883018F000E010E051C014E19A
:103A2000C12CD12C08E080916701B601680F711D8F
:103A3000CB01039782319105C8F5625071093CEFC3
:103A4000F32EF10E1093500110934F0180FD0DC025
:103A5000009351018BE491E00E942513F0925001F4
:103A6000F0924F01109251010CC0109251018BE461
:103A700091E00E942513F0925001F0924F010093C3
:103A8000510180916701F601E80FF11DEE0FFF1F54
:103A9000E658F74F659174918EE591E00E94AE1E55
:103AA0006EE571E08BE491E00E948B0D9FEFC91AE7
:103AB000D90A105FE7E0CE16D10409F0B4CFACCF3D
:103AC00020E04EE060E070E0C8010E94E0130F5F6C
:103AD0001F4F0E301105A1F78EE480937C0062E049
:103AE00070E080E090E00E948D0D80917A0080640B
:103AF00080937A0080917A0086FDFCCF80917800D7
:103B00002091790030E0322F2227A901330F660B74
:103B1000770B9A01AB01282B60E070E381E190E024
:103B20000E94BD1ECA01B90128EE33E040E050E01A
:103B30000E94BD1ECA01B9010E9413206B017C01C5
:103B400020E030E040E950E40E94C32087FD0AC035
:103B500008E028E048E758E061E070E081E090E0AC
:103B60000E94671220E030E040E950E4C701B6014E
:103B70000E946B1F87FF14C020E030E040E850E453
:103B8000C701B6010E94C32087FD0AC008E028E0F3
:103B900040E758E061E070E081E090E00E94671249
:103BA00020E030E040E850E4C701B6010E946B1FFE
:103BB00087FF14C020E030E040E650E4C701B601C2
:103BC0000E94C32087FD0AC008E028E048E658E0CC
:103BD00061E070E081E090E00E94671220E030E058
:103BE00040E650E4C701B6010E946B1F87FF14C076
:103BF00020E030E040E450E4C701B6010E94C32059
:103C000087FD0AC008E028E040E658E061E070E087
:103C100081E090E00E94671220E030E040E450E450
:103C2000C701B6010E946B1F87FF1CC080915D0118
:103C300008E028E0813061F048E558E061E070E09C
:103C400081E090E00E94671281E080935D010AC0EC
:103C500040E558E061E070E081E090E00E9467128A
:103C600010925D01109200010E94441280E090E0E9
:103C7000892B11F40C94D7150E9400000C94D715D1
:103C80000F931F93CF93DF938C0181E090E00E940C
:103C9000B51E80FF2FC08AE090E00E94B51E9FEF06
:103CA000980F9E3F38F522E330E0D80150963C93C0
:103CB0002E931F9728E330E052963C932E93519712
:103CC000CBE0D0E0D801ED91FC910190F081E02DA6
:103CD000682FC8010995CE010E94B51E2196C131F9
:103CE000D10581F70E944412DF91CF911F910F916E
:103CF0000C941A15DF91CF911F910F91089504979D
:103D00000C94401EE0E9F1E01382128211861286C3
:103D100080E1838710861782158682E191E0918386
:103D2000808380E291E095838483108A1786128ACB
:103D3000118A81E0838B148A858B168AEBE4F1E08B
:103D40001382128226E031E03183208398E091874C
:103D5000808715821682148287830895FB01DC0117
:103D600005900D920020E1F70895F999FECF92BDDC
:103D700081BDF89A992780B50895052E97FB1EF40A
:103D800000940E94D41E57FD07D00E94DC1E07FC41
:103D900003D04EF40C94D41E509540953095219547
:103DA0003F4F4F4F5F4F0895909580957095619567
:103DB0007F4F8F4F9F4F0895A1E21A2EAA1BBB1B66
:103DC000FD010DC0AA1FBB1FEE1FFF1FA217B307E7
:103DD000E407F50720F0A21BB30BE40BF50B661FFD
:103DE000771F881F991F1A9469F7609570958095C1
:103DF00090959B01AC01BD01CF0108955058BB27A0
:103E0000AA270E94161F0C9489200E947B2038F05C
:103E10000E94822020F039F49F3F19F426F40C947C
:103E200078200EF4E095E7FB0C947220E92F0E94B5
:103E30009A2058F3BA17620773078407950720F092
:103E400079F4A6F50C94BC200EF4E0950B2EBA2F55
:103E5000A02D0B01B90190010C01CA01A001112490
:103E6000FF27591B99F0593F50F4503E68F11A163C
:103E7000F040A22F232F342F4427585FF3CF4695CD
:103E800037952795A795F0405395C9F77EF41F16EF
:103E9000BA0B620B730B840BBAF09150A1F0FF0FB9
:103EA000BB1F661F771F881FC2F70EC0BA0F621FA5
:103EB000731F841F48F4879577956795B795F79595
:103EC0009E3F08F0B0CF9395880F08F09927EE0F2A
:103ED0009795879508950E944E2008F481E00895F3
:103EE0000E94841F0C9489200E94822058F00E9416
:103EF0007B2040F029F45F3F29F00C94722051118F
:103F00000C94BD200C9478200E949A2068F3992389
:103F1000B1F3552391F3951B550BBB27AA276217C5
:103F20007307840738F09F5F5F4F220F331F441FD2
:103F3000AA1FA9F335D00E2E3AF0E0E832D0915006
:103F40005040E695001CCAF72BD0FE2F29D0660FF3
:103F5000771F881FBB1F261737074807AB07B0E836
:103F600009F0BB0B802DBF01FF2793585F4F3AF03C
:103F70009E3F510578F00C9472200C94BD205F3F59
:103F8000E4F3983ED4F3869577956795B795F795C2
:103F90009F5FC9F7880F911D9695879597F90895AA
:103FA000E1E0660F771F881FBB1F62177307840746
:103FB000BA0720F0621B730B840BBA0BEE1F88F755
:103FC000E09508950E94A22088F09F5798F0B92F9D
:103FD0009927B751B0F0E1F0660F771F881F991F3E
:103FE0001AF0BA95C9F714C0B13091F00E94BC2004
:103FF000B1E008950C94BC20672F782F8827B85F14
:1040000039F0B93FCCF3869577956795B395D9F795
:104010003EF490958095709561957F4F8F4F9F4F9F
:104020000895E89409C097FB3EF4909580957095AB
:1040300061957F4F8F4F9F4F9923A9F0F92F96E9F4
:10404000BB279395F695879577956795B795F11169
:10405000F8CFFAF4BB0F11F460FF1BC06F5F7F4F06
:104060008F4F9F4F16C0882311F096E911C0772318
:1040700021F09EE8872F762F05C0662371F096E821
:10408000862F70E060E02AF09A95660F771F881FF0
:10409000DAF7880F9695879597F90895990F000894
:1040A000550FAA0BE0E8FEEF16161706E807F9070A
:1040B000C0F012161306E407F50798F0621B730BA5
:1040C000840B950B39F40A2661F0232B242B252B26
:1040D00021F408950A2609F4A140A6958FEF811DC9
:1040E000811D089597F99F6780E870E060E008956A
:1040F0009FEF80EC089500240A9416161706180600
:104100000906089500240A941216130614060506DB
:104110000895092E0394000C11F4882352F0BB0F6C
:1041200040F4BF2B11F460FF04C06F5F7F4F8F4FCF
:104130009F4F089557FD9058440F551F59F05F3F0A
:1041400071F04795880F97FB991F61F09F3F79F0B9
:1041500087950895121613061406551FF2CF46953B
:10416000F1DF08C0161617061806991FF1CF8695BD
:104170007105610508940895E894BB2766277727A1
:10418000CB0197F908950E944E2008F48FEF08950F
:104190000E94DB200C9489200E947B2038F00E9432
:1041A000822020F0952311F00C9472200C9478203A
:1041B00011240C94BD200E949A2070F3959FC1F3A6
:1041C000950F50E0551F629FF001729FBB27F00DC5
:1041D000B11D639FAA27F00DB11DAA1F649F66271A
:1041E000B00DA11D661F829F2227B00DA11D621F69
:1041F000739FB00DA11D621F839FA00D611D221F23
:10420000749F3327A00D611D231F849F600D211D06
:10421000822F762F6A2F11249F5750409AF0F1F089
:1042200088234AF0EE0FFF1FBB1F661F771F881FF2
:1042300091505040A9F79E3F510580F00C94722098
:104240000C94BD205F3FE4F3983ED4F386957795B8
:104250006795B795F795E7959F5FC1F7FE2B880F98
:10426000911D9695879597F908950E944E20880B89
:10427000990B0895EE0FFF1F0590F491E02D09941E
:0E42800081E090E0F8940C944521F894FFCF73
:10428E0001FF00000000170CE109C50CC40C000072
:10429E0000005F0EE109C50CC40C401EFCFF0000BF
:1042AE007F1E3F2E3F3F3F002B004D6178004D6932
:1042BE006E0030004C615800416358002D006E6155
:0A42CE006E00696E66006F766600F0
:00000001FF
